{
    "contractName": "TreasuryFlat",
    "abi": [
        {
            "inputs": [],
            "payable": false,
            "stateMutability": "nonpayable",
            "type": "constructor"
        },
        {
            "anonymous": false,
            "inputs": [
                {
                    "indexed": false,
                    "internalType": "address",
                    "name": "newCEO",
                    "type": "address"
                }
            ],
            "name": "CEOSet",
            "type": "event"
        },
        {
            "anonymous": false,
            "inputs": [
                {
                    "indexed": false,
                    "internalType": "uint256",
                    "name": "_gameID",
                    "type": "uint256"
                },
                {
                    "indexed": false,
                    "internalType": "uint256",
                    "name": "_balance",
                    "type": "uint256"
                }
            ],
            "name": "NewBalance",
            "type": "event"
        },
        {
            "anonymous": false,
            "inputs": [],
            "name": "Paused",
            "type": "event"
        },
        {
            "anonymous": false,
            "inputs": [],
            "name": "Unpaused",
            "type": "event"
        },
        {
            "anonymous": false,
            "inputs": [
                {
                    "indexed": false,
                    "internalType": "address",
                    "name": "newWorker",
                    "type": "address"
                }
            ],
            "name": "WorkerSet",
            "type": "event"
        },
        {
            "payable": true,
            "stateMutability": "payable",
            "type": "fallback"
        },
        {
            "constant": true,
            "inputs": [],
            "name": "ceoAddress",
            "outputs": [
                {
                    "internalType": "address",
                    "name": "",
                    "type": "address"
                }
            ],
            "payable": false,
            "stateMutability": "view",
            "type": "function"
        },
        {
            "constant": true,
            "inputs": [],
            "name": "defaultTokenName",
            "outputs": [
                {
                    "internalType": "string",
                    "name": "",
                    "type": "string"
                }
            ],
            "payable": false,
            "stateMutability": "view",
            "type": "function"
        },
        {
            "constant": true,
            "inputs": [
                {
                    "internalType": "uint256",
                    "name": "",
                    "type": "uint256"
                }
            ],
            "name": "games",
            "outputs": [
                {
                    "internalType": "address",
                    "name": "gameAddress",
                    "type": "address"
                },
                {
                    "internalType": "string",
                    "name": "gameName",
                    "type": "string"
                },
                {
                    "internalType": "bool",
                    "name": "isActive",
                    "type": "bool"
                }
            ],
            "payable": false,
            "stateMutability": "view",
            "type": "function"
        },
        {
            "constant": false,
            "inputs": [],
            "name": "pause",
            "outputs": [],
            "payable": false,
            "stateMutability": "nonpayable",
            "type": "function"
        },
        {
            "constant": true,
            "inputs": [],
            "name": "paused",
            "outputs": [
                {
                    "internalType": "bool",
                    "name": "",
                    "type": "bool"
                }
            ],
            "payable": false,
            "stateMutability": "view",
            "type": "function"
        },
        {
            "constant": false,
            "inputs": [
                {
                    "internalType": "address",
                    "name": "_newCEO",
                    "type": "address"
                }
            ],
            "name": "setCEO",
            "outputs": [],
            "payable": false,
            "stateMutability": "nonpayable",
            "type": "function"
        },
        {
            "constant": false,
            "inputs": [
                {
                    "internalType": "address",
                    "name": "_newWorker",
                    "type": "address"
                }
            ],
            "name": "setWorker",
            "outputs": [],
            "payable": false,
            "stateMutability": "nonpayable",
            "type": "function"
        },
        {
            "constant": true,
            "inputs": [],
            "name": "tail",
            "outputs": [
                {
                    "internalType": "bytes32",
                    "name": "",
                    "type": "bytes32"
                }
            ],
            "payable": false,
            "stateMutability": "view",
            "type": "function"
        },
        {
            "constant": true,
            "inputs": [
                {
                    "internalType": "uint256",
                    "name": "",
                    "type": "uint256"
                }
            ],
            "name": "tokenNames",
            "outputs": [
                {
                    "internalType": "string",
                    "name": "",
                    "type": "string"
                }
            ],
            "payable": false,
            "stateMutability": "view",
            "type": "function"
        },
        {
            "constant": true,
            "inputs": [
                {
                    "internalType": "string",
                    "name": "",
                    "type": "string"
                }
            ],
            "name": "tokens",
            "outputs": [
                {
                    "internalType": "address",
                    "name": "",
                    "type": "address"
                }
            ],
            "payable": false,
            "stateMutability": "view",
            "type": "function"
        },
        {
            "constant": false,
            "inputs": [],
            "name": "unpause",
            "outputs": [],
            "payable": false,
            "stateMutability": "nonpayable",
            "type": "function"
        },
        {
            "constant": true,
            "inputs": [],
            "name": "workerAddress",
            "outputs": [
                {
                    "internalType": "address",
                    "name": "",
                    "type": "address"
                }
            ],
            "payable": false,
            "stateMutability": "view",
            "type": "function"
        },
        {
            "constant": false,
            "inputs": [
                {
                    "internalType": "string",
                    "name": "_tokenName",
                    "type": "string"
                }
            ],
            "name": "updateDefaultToken",
            "outputs": [],
            "payable": false,
            "stateMutability": "nonpayable",
            "type": "function"
        },
        {
            "constant": true,
            "inputs": [
                {
                    "internalType": "string",
                    "name": "_tokenName",
                    "type": "string"
                }
            ],
            "name": "tokenAddress",
            "outputs": [
                {
                    "internalType": "address",
                    "name": "",
                    "type": "address"
                }
            ],
            "payable": false,
            "stateMutability": "view",
            "type": "function"
        },
        {
            "constant": false,
            "inputs": [
                {
                    "internalType": "string",
                    "name": "_tokenName",
                    "type": "string"
                },
                {
                    "internalType": "address",
                    "name": "_from",
                    "type": "address"
                },
                {
                    "internalType": "uint256",
                    "name": "_amount",
                    "type": "uint256"
                }
            ],
            "name": "tokenInboundTransfer",
            "outputs": [
                {
                    "internalType": "bool",
                    "name": "",
                    "type": "bool"
                }
            ],
            "payable": false,
            "stateMutability": "nonpayable",
            "type": "function"
        },
        {
            "constant": false,
            "inputs": [
                {
                    "internalType": "string",
                    "name": "_tokenName",
                    "type": "string"
                },
                {
                    "internalType": "address",
                    "name": "_to",
                    "type": "address"
                },
                {
                    "internalType": "uint256",
                    "name": "_amount",
                    "type": "uint256"
                }
            ],
            "name": "tokenOutboundTransfer",
            "outputs": [
                {
                    "internalType": "bool",
                    "name": "",
                    "type": "bool"
                }
            ],
            "payable": false,
            "stateMutability": "nonpayable",
            "type": "function"
        },
        {
            "constant": false,
            "inputs": [
                {
                    "internalType": "address",
                    "name": "_newGameAddress",
                    "type": "address"
                },
                {
                    "internalType": "string",
                    "name": "_newGameName",
                    "type": "string"
                },
                {
                    "internalType": "uint256",
                    "name": "_maximumBet",
                    "type": "uint256"
                },
                {
                    "internalType": "bool",
                    "name": "_isActive",
                    "type": "bool"
                }
            ],
            "name": "addGame",
            "outputs": [],
            "payable": false,
            "stateMutability": "nonpayable",
            "type": "function"
        },
        {
            "constant": false,
            "inputs": [
                {
                    "internalType": "uint256",
                    "name": "_gameID",
                    "type": "uint256"
                },
                {
                    "internalType": "address",
                    "name": "_newGame",
                    "type": "address"
                },
                {
                    "internalType": "bool",
                    "name": "_isActive",
                    "type": "bool"
                },
                {
                    "internalType": "string",
                    "name": "_newGameName",
                    "type": "string"
                }
            ],
            "name": "updateGame",
            "outputs": [],
            "payable": false,
            "stateMutability": "nonpayable",
            "type": "function"
        },
        {
            "constant": false,
            "inputs": [
                {
                    "internalType": "uint256",
                    "name": "_gameID",
                    "type": "uint256"
                },
                {
                    "internalType": "address",
                    "name": "_newGameAddress",
                    "type": "address"
                }
            ],
            "name": "updateGameAddress",
            "outputs": [],
            "payable": false,
            "stateMutability": "nonpayable",
            "type": "function"
        },
        {
            "constant": false,
            "inputs": [
                {
                    "internalType": "uint256",
                    "name": "_gameID",
                    "type": "uint256"
                }
            ],
            "name": "removeGame",
            "outputs": [],
            "payable": false,
            "stateMutability": "nonpayable",
            "type": "function"
        },
        {
            "constant": false,
            "inputs": [
                {
                    "internalType": "uint256",
                    "name": "_gameID",
                    "type": "uint256"
                },
                {
                    "internalType": "uint256",
                    "name": "_maximumBet",
                    "type": "uint256"
                },
                {
                    "internalType": "string",
                    "name": "_tokenName",
                    "type": "string"
                }
            ],
            "name": "updateMaximumBet",
            "outputs": [],
            "payable": false,
            "stateMutability": "nonpayable",
            "type": "function"
        },
        {
            "constant": true,
            "inputs": [
                {
                    "internalType": "uint256",
                    "name": "_gameID",
                    "type": "uint256"
                },
                {
                    "internalType": "string",
                    "name": "_tokenName",
                    "type": "string"
                }
            ],
            "name": "gameMaximumBet",
            "outputs": [
                {
                    "internalType": "uint256",
                    "name": "",
                    "type": "uint256"
                }
            ],
            "payable": false,
            "stateMutability": "view",
            "type": "function"
        },
        {
            "constant": true,
            "inputs": [
                {
                    "internalType": "string",
                    "name": "_tokenName",
                    "type": "string"
                }
            ],
            "name": "getMaximumBet",
            "outputs": [
                {
                    "internalType": "uint256",
                    "name": "",
                    "type": "uint256"
                }
            ],
            "payable": false,
            "stateMutability": "view",
            "type": "function"
        },
        {
            "constant": false,
            "inputs": [
                {
                    "internalType": "address",
                    "name": "_tokenAddress",
                    "type": "address"
                },
                {
                    "internalType": "string",
                    "name": "_tokenName",
                    "type": "string"
                }
            ],
            "name": "addToken",
            "outputs": [],
            "payable": false,
            "stateMutability": "nonpayable",
            "type": "function"
        },
        {
            "constant": true,
            "inputs": [
                {
                    "internalType": "address",
                    "name": "_userAddress",
                    "type": "address"
                },
                {
                    "internalType": "string",
                    "name": "_tokenName",
                    "type": "string"
                }
            ],
            "name": "checkApproval",
            "outputs": [
                {
                    "internalType": "uint256",
                    "name": "approved",
                    "type": "uint256"
                }
            ],
            "payable": false,
            "stateMutability": "view",
            "type": "function"
        },
        {
            "constant": true,
            "inputs": [
                {
                    "internalType": "string",
                    "name": "_tokenName",
                    "type": "string"
                }
            ],
            "name": "getBalanceByTokenName",
            "outputs": [
                {
                    "internalType": "uint256",
                    "name": "",
                    "type": "uint256"
                }
            ],
            "payable": false,
            "stateMutability": "view",
            "type": "function"
        },
        {
            "constant": true,
            "inputs": [
                {
                    "internalType": "address",
                    "name": "_tokenAddress",
                    "type": "address"
                }
            ],
            "name": "getBalanceByTokenAddress",
            "outputs": [
                {
                    "internalType": "uint256",
                    "name": "",
                    "type": "uint256"
                }
            ],
            "payable": false,
            "stateMutability": "view",
            "type": "function"
        },
        {
            "constant": false,
            "inputs": [
                {
                    "internalType": "uint256",
                    "name": "_gameID",
                    "type": "uint256"
                },
                {
                    "internalType": "uint256",
                    "name": "_tokenAmount",
                    "type": "uint256"
                },
                {
                    "internalType": "string",
                    "name": "_tokenName",
                    "type": "string"
                }
            ],
            "name": "addFunds",
            "outputs": [],
            "payable": false,
            "stateMutability": "nonpayable",
            "type": "function"
        },
        {
            "constant": true,
            "inputs": [
                {
                    "internalType": "string",
                    "name": "_tokenName",
                    "type": "string"
                }
            ],
            "name": "checkAllocatedTokens",
            "outputs": [
                {
                    "internalType": "uint256",
                    "name": "",
                    "type": "uint256"
                }
            ],
            "payable": false,
            "stateMutability": "view",
            "type": "function"
        },
        {
            "constant": true,
            "inputs": [
                {
                    "internalType": "uint256",
                    "name": "_gameID",
                    "type": "uint256"
                },
                {
                    "internalType": "string",
                    "name": "_tokenName",
                    "type": "string"
                }
            ],
            "name": "checkAllocatedTokensPerGame",
            "outputs": [
                {
                    "internalType": "uint256",
                    "name": "",
                    "type": "uint256"
                }
            ],
            "payable": false,
            "stateMutability": "view",
            "type": "function"
        },
        {
            "constant": false,
            "inputs": [
                {
                    "internalType": "uint256",
                    "name": "_gameID",
                    "type": "uint256"
                },
                {
                    "internalType": "uint256",
                    "name": "_amount",
                    "type": "uint256"
                },
                {
                    "internalType": "string",
                    "name": "_tokenName",
                    "type": "string"
                }
            ],
            "name": "withdrawTokens",
            "outputs": [],
            "payable": false,
            "stateMutability": "nonpayable",
            "type": "function"
        },
        {
            "constant": false,
            "inputs": [
                {
                    "internalType": "string",
                    "name": "_tokenName",
                    "type": "string"
                }
            ],
            "name": "withdrawMaxTokens",
            "outputs": [],
            "payable": false,
            "stateMutability": "nonpayable",
            "type": "function"
        },
        {
            "constant": false,
            "inputs": [
                {
                    "internalType": "bytes32",
                    "name": "_tail",
                    "type": "bytes32"
                }
            ],
            "name": "setTail",
            "outputs": [],
            "payable": false,
            "stateMutability": "nonpayable",
            "type": "function"
        },
        {
            "constant": false,
            "inputs": [
                {
                    "internalType": "bytes32",
                    "name": "_localhash",
                    "type": "bytes32"
                }
            ],
            "name": "consumeHash",
            "outputs": [
                {
                    "internalType": "bool",
                    "name": "",
                    "type": "bool"
                }
            ],
            "payable": false,
            "stateMutability": "nonpayable",
            "type": "function"
        },
        {
            "constant": false,
            "inputs": [
                {
                    "internalType": "address",
                    "name": "_newTreasury",
                    "type": "address"
                }
            ],
            "name": "migrateTreasury",
            "outputs": [
                {
                    "internalType": "bool",
                    "name": "",
                    "type": "bool"
                }
            ],
            "payable": false,
            "stateMutability": "nonpayable",
            "type": "function"
        }
    ],
    "bytecode": "0x60806040526002805460ff60a01b191690553480156200001e57600080fd5b5060018054336001600160a01b031991821681179283905560028054909216179055604080516001600160a01b039092168252517ff97cbb4246b709036319093e5ff31674b9f6759076d153e1bea1f60392170fc0916020908290030190a1604080518082019091526004808252634d414e4160e01b6020909201918252620000aa91600391620001b4565b50732a3df21e612d30ac0cd63c3f80e1eb583a4744cc600460036040518082805460018160011615610100020316600290048015620001235780601f106200010057610100808354040283529182019162000123565b820191906000526020600020905b8154815290600101906020018083116200010e575b5050928352505060405190819003602001902080546001600160a01b03929092166001600160a01b031990921691909117905560068054600181810180845560009390935260038054620001ac937ff652222313e28459528d920b65115c16c04f3efc82aaedc97be59f3f377c0d3f019260029082161561010002600019019091160462000239565b5050620002d3565b828054600181600116156101000203166002900490600052602060002090601f016020900481019282601f10620001f757805160ff191683800117855562000227565b8280016001018555821562000227579182015b82811115620002275782518255916020019190600101906200020a565b5062000235929150620002b3565b5090565b828054600181600116156101000203166002900490600052602060002090601f016020900481019282601f1062000274578054855562000227565b828001600101855582156200022757600052602060002091601f016020900482015b828111156200022757825482559160010191906001019062000296565b620002d091905b80821115620002355760008155600101620002ba565b90565b6136bc80620002e36000396000f3fe6080604052600436106102045760003560e01c80636e30199f116101185780638456cb59116100a0578063cb3006c31161006f578063cb3006c314610d6d578063cbd88f4814610df8578063d9c97d8214610e0d578063ed42335514610ea0578063f628ca5714610f2257610204565b80638456cb5914610c02578063abbcb37814610c17578063b3fd34ae14610ca1578063c26f6d4414610d3a57610204565b80637749bc11116100e75780637749bc1114610a2257806379fd5b1a14610a4c57806380221e6114610a85578063823149c714610b0057806382bd773614610b7b57610204565b80636e30199f1461087b57806373d31240146108f6578063742905671461092057806376369c241461099b57610204565b806321f0b9721161019b5780633f4ba83a1161016a5780633f4ba83a1461075e57806346756f19146107735780634e3efe1a146107ba5780635c975abb1461083c57806365afb44f1461085157610204565b806321f0b972146105b957806327d7874c146106405780632c8da56014610673578063310495ab1461073457610204565b80630ee1cc61116101d75780630ee1cc61146103e3578063117a5b901461045e57806313d8c8401461051a57806316f85b6f1461052f57610204565b806304c2320b1461020957806306b1bc4d146102d65780630a0f8168146103895780630d5c69641461039e575b600080fd5b34801561021557600080fd5b506102ba6004803603602081101561022c57600080fd5b810190602081018135600160201b81111561024657600080fd5b82018360208201111561025857600080fd5b803590602001918460018302840111600160201b8311171561027957600080fd5b91908080601f016020809104026020016040519081016040528093929190818152602001838380828437600092019190915250929550610fac945050505050565b604080516001600160a01b039092168252519081900360200190f35b3480156102e257600080fd5b50610387600480360360208110156102f957600080fd5b810190602081018135600160201b81111561031357600080fd5b82018360208201111561032557600080fd5b803590602001918460018302840111600160201b8311171561034657600080fd5b91908080601f016020809104026020016040519081016040528093929190818152602001838380828437600092019190915250929550610fd2945050505050565b005b34801561039557600080fd5b506102ba611000565b3480156103aa57600080fd5b506103d1600480360360208110156103c157600080fd5b50356001600160a01b031661100f565b60408051918252519081900360200190f35b3480156103ef57600080fd5b506103d16004803603602081101561040657600080fd5b810190602081018135600160201b81111561042057600080fd5b82018360208201111561043257600080fd5b803590602001918460018302840111600160201b8311171561045357600080fd5b50909250905061108d565b34801561046a57600080fd5b506104886004803603602081101561048157600080fd5b5035611130565b604080516001600160a01b038516815282151591810191909152606060208083018281528551928401929092528451608084019186019080838360005b838110156104dd5781810151838201526020016104c5565b50505050905090810190601f16801561050a5780820380516001836020036101000a031916815260200191505b5094505050505060405180910390f35b34801561052657600080fd5b506103d16111fd565b34801561053b57600080fd5b50610544611203565b6040805160208082528351818301528351919283929083019185019080838360005b8381101561057e578181015183820152602001610566565b50505050905090810190601f1680156105ab5780820380516001836020036101000a031916815260200191505b509250505060405180910390f35b3480156105c557600080fd5b50610387600480360360608110156105dc57600080fd5b813591602081013591810190606081016040820135600160201b81111561060257600080fd5b82018360208201111561061457600080fd5b803590602001918460018302840111600160201b8311171561063557600080fd5b509092509050611291565b34801561064c57600080fd5b506103876004803603602081101561066357600080fd5b50356001600160a01b03166112f5565b34801561067f57600080fd5b506103876004803603604081101561069657600080fd5b6001600160a01b038235169190810190604081016020820135600160201b8111156106c057600080fd5b8201836020820111156106d257600080fd5b803590602001918460018302840111600160201b831117156106f357600080fd5b91908080601f016020809104026020016040519081016040528093929190818152602001838380828437600092019190915250929550611379945050505050565b34801561074057600080fd5b506105446004803603602081101561075757600080fd5b503561145d565b34801561076a57600080fd5b506103876114d0565b34801561077f57600080fd5b506107a66004803603602081101561079657600080fd5b50356001600160a01b0316611535565b604080519115158252519081900360200190f35b3480156107c657600080fd5b506103d1600480360360408110156107dd57600080fd5b81359190810190604081016020820135600160201b8111156107fe57600080fd5b82018360208201111561081057600080fd5b803590602001918460018302840111600160201b8311171561083157600080fd5b5090925090506120df565b34801561084857600080fd5b506107a661212d565b34801561085d57600080fd5b506107a66004803603602081101561087457600080fd5b503561213d565b34801561088757600080fd5b506102ba6004803603602081101561089e57600080fd5b810190602081018135600160201b8111156108b857600080fd5b8201836020820111156108ca57600080fd5b803590602001918460018302840111600160201b831117156108eb57600080fd5b5090925090506121da565b34801561090257600080fd5b506103876004803603602081101561091957600080fd5b5035612214565b34801561092c57600080fd5b506103876004803603602081101561094357600080fd5b810190602081018135600160201b81111561095d57600080fd5b82018360208201111561096f57600080fd5b803590602001918460018302840111600160201b8311171561099057600080fd5b509092509050612272565b3480156109a757600080fd5b50610387600480360360608110156109be57600080fd5b813591602081013591810190606081016040820135600160201b8111156109e457600080fd5b8201836020820111156109f657600080fd5b803590602001918460018302840111600160201b83111715610a1757600080fd5b50909250905061240d565b348015610a2e57600080fd5b5061038760048036036020811015610a4557600080fd5b5035612685565b348015610a5857600080fd5b5061038760048036036040811015610a6f57600080fd5b50803590602001356001600160a01b03166126a8565b348015610a9157600080fd5b506103d160048036036020811015610aa857600080fd5b810190602081018135600160201b811115610ac257600080fd5b820183602082011115610ad457600080fd5b803590602001918460018302840111600160201b83111715610af557600080fd5b5090925090506126ff565b348015610b0c57600080fd5b506103d160048036036020811015610b2357600080fd5b810190602081018135600160201b811115610b3d57600080fd5b820183602082011115610b4f57600080fd5b803590602001918460018302840111600160201b83111715610b7057600080fd5b509092509050612759565b348015610b8757600080fd5b5061038760048036036060811015610b9e57600080fd5b813591602081013591810190606081016040820135600160201b811115610bc457600080fd5b820183602082011115610bd657600080fd5b803590602001918460018302840111600160201b83111715610bf757600080fd5b5090925090506127af565b348015610c0e57600080fd5b50610387612a7d565b348015610c2357600080fd5b506107a660048036036060811015610c3a57600080fd5b810190602081018135600160201b811115610c5457600080fd5b820183602082011115610c6657600080fd5b803590602001918460018302840111600160201b83111715610c8757600080fd5b91935091506001600160a01b038135169060200135612ae9565b348015610cad57600080fd5b5061038760048036036080811015610cc457600080fd5b8135916001600160a01b0360208201351691604082013515159190810190608081016060820135600160201b811115610cfc57600080fd5b820183602082011115610d0e57600080fd5b803590602001918460018302840111600160201b83111715610d2f57600080fd5b509092509050612c51565b348015610d4657600080fd5b5061038760048036036020811015610d5d57600080fd5b50356001600160a01b0316612d10565b348015610d7957600080fd5b506103d160048036036040811015610d9057600080fd5b6001600160a01b038235169190810190604081016020820135600160201b811115610dba57600080fd5b820183602082011115610dcc57600080fd5b803590602001918460018302840111600160201b83111715610ded57600080fd5b509092509050612d94565b348015610e0457600080fd5b506102ba612e06565b348015610e1957600080fd5b5061038760048036036080811015610e3057600080fd5b6001600160a01b038235169190810190604081016020820135600160201b811115610e5a57600080fd5b820183602082011115610e6c57600080fd5b803590602001918460018302840111600160201b83111715610e8d57600080fd5b9193509150803590602001351515612e15565b348015610eac57600080fd5b506103d160048036036040811015610ec357600080fd5b81359190810190604081016020820135600160201b811115610ee457600080fd5b820183602082011115610ef657600080fd5b803590602001918460018302840111600160201b83111715610f1757600080fd5b50909250905061306d565b348015610f2e57600080fd5b506107a660048036036060811015610f4557600080fd5b810190602081018135600160201b811115610f5f57600080fd5b820183602082011115610f7157600080fd5b803590602001918460018302840111600160201b83111715610f9257600080fd5b91935091506001600160a01b0381351690602001356130af565b80516020818301810180516004825292820191909301209152546001600160a01b031681565b6001546001600160a01b03163314610fe957600080fd5b8051610ffc90600390602084019061350e565b5050565b6001546001600160a01b031681565b604080516370a0823160e01b8152306004820152905160009183916001600160a01b038316916370a08231916024808301926020929190829003018186803b15801561105a57600080fd5b505afa15801561106e573d6000803e3d6000fd5b505050506040513d602081101561108457600080fd5b50519392505050565b60008060048484604051808383808284379190910194855250506040805160209481900385018120546370a0823160e01b825230600483015291516001600160a01b03909216955085946370a08231945060248083019450909291829003018186803b1580156110fc57600080fd5b505afa158015611110573d6000803e3d6000fd5b505050506040513d602081101561112657600080fd5b5051949350505050565b6005818154811061113d57fe5b600091825260209182902060059091020180546001808301805460408051601f60026000199685161561010002969096019093169490940491820187900487028401870190528083526001600160a01b0390931695509293909291908301828280156111ea5780601f106111bf576101008083540402835291602001916111ea565b820191906000526020600020905b8154815290600101906020018083116111cd57829003601f168201915b5050506002909301549192505060ff1683565b60005481565b6003805460408051602060026001851615610100026000190190941693909304601f810184900484028201840190925281815292918301828280156112895780601f1061125e57610100808354040283529160200191611289565b820191906000526020600020905b81548152906001019060200180831161126c57829003601f168201915b505050505081565b6001546001600160a01b031633146112a857600080fd5b82600585815481106112b657fe5b90600052602060002090600502016004018383604051808383808284379190910194855250506040519283900360200190922092909255505050505050565b6001546001600160a01b0316331461130c57600080fd5b6001600160a01b03811661131f57600080fd5b600180546001600160a01b0319166001600160a01b03838116919091179182905560408051929091168252517ff97cbb4246b709036319093e5ff31674b9f6759076d153e1bea1f60392170fc0916020908290030190a150565b6001546001600160a01b0316331461139057600080fd5b816004826040518082805190602001908083835b602083106113c35780518252601f1990920191602091820191016113a4565b51815160209384036101000a600019018019909216911617905292019485525060405193849003810190932080546001600160a01b0319166001600160a01b0395909516949094179093555060068054600181018083556000929092528451919350611457927ff652222313e28459528d920b65115c16c04f3efc82aaedc97be59f3f377c0d3f909101919085019061350e565b50505050565b6006818154811061146a57fe5b600091825260209182902001805460408051601f60026000196101006001871615020190941693909304928301859004850281018501909152818152935090918301828280156112895780601f1061125e57610100808354040283529160200191611289565b6001546001600160a01b031633146114e757600080fd5b600254600160a01b900460ff166114fd57600080fd5b6002805460ff60a01b191690556040517fa45f47fdea8a1efdd9029a5691c7f759c32b7c698632b563573e155625d1693390600090a1565b6001546000906001600160a01b0316331461154f57600080fd5b6040516306b1bc4d60e01b815260206004820190815260038054600260001961010060018416150201909116046024840181905285936001600160a01b038516936306b1bc4d939290918291604490910190849080156115f05780601f106115c5576101008083540402835291602001916115f0565b820191906000526020600020905b8154815290600101906020018083116115d357829003601f168201915b505092505050600060405180830381600087803b15801561161057600080fd5b505af1158015611624573d6000803e3d6000fd5b506000925050505b6005548110156118ba57816001600160a01b031663d9c97d826005838154811061165257fe5b600091825260209091206005918202015481546001600160a01b0390911691908590811061167c57fe5b90600052602060002090600502016001016005858154811061169a57fe5b9060005260206000209060050201600401600360405180828054600181600116156101000203166002900480156117085780601f106116e6576101008083540402835291820191611708565b820191906000526020600020905b8154815290600101906020018083116116f4575b50509150509081526020016040518091039020546005868154811061172957fe5b6000918252602090912060026005909202018101546040516001600160e01b031960e088901b1681526001600160a01b038616600482019081526044820185905260ff909216801515606483015260806024830190815286546000196001821615610100020116949094046084830181905290939160a40190869080156117f15780601f106117c6576101008083540402835291602001916117f1565b820191906000526020600020905b8154815290600101906020018083116117d457829003601f168201915b505095505050505050600060405180830381600087803b15801561181457600080fd5b505af1158015611828573d6000803e3d6000fd5b5050505060006005828154811061183b57fe5b600091825260208220600590910201546040805163c327767160e01b81526001600160a01b0389811660048301529151919092169350839263c3277671926024808201939182900301818387803b15801561189557600080fd5b505af11580156118a9573d6000803e3d6000fd5b50506001909301925061162c915050565b5060005b600654811015611a6a57816001600160a01b0316632c8da5606004600684815481106118e657fe5b90600052602060002001604051808280546001816001161561010002031660029004801561194b5780601f1061192957610100808354040283529182019161194b565b820191906000526020600020905b815481529060010190602001808311611937575b5050928352505060405190819003602001902054600680546001600160a01b03909216918590811061197957fe5b60009182526020909120604080516001600160e01b031960e087901b1681526001600160a01b0385166004820190815260248201928352929093018054600260001961010060018416150201909116046044850181905290936064019084908015611a255780601f106119fa57610100808354040283529160200191611a25565b820191906000526020600020905b815481529060010190602001808311611a0857829003601f168201915b50509350505050600060405180830381600087803b158015611a4657600080fd5b505af1158015611a5a573d6000803e3d6000fd5b5050600190920191506118be9050565b5060005b600654811015612019576000600460068381548110611a8957fe5b906000526020600020016040518082805460018160011615610100020316600290048015611aee5780601f10611acc576101008083540402835291820191611aee565b820191906000526020600020905b815481529060010190602001808311611ada575b505092835250506040805160209281900383018120546370a0823160e01b825230600483015291516001600160a01b03909216935060009284926370a08231926024808201939291829003018186803b158015611b4a57600080fd5b505afa158015611b5e573d6000803e3d6000fd5b505050506040513d6020811015611b7457600080fd5b50516040805163095ea7b360e01b81526001600160a01b0389811660048301526024820184905291519293509084169163095ea7b3916044808201926020929091908290030181600087803b158015611bcc57600080fd5b505af1158015611be0573d6000803e3d6000fd5b505050506040513d6020811015611bf657600080fd5b50600090505b60055481101561200e57600060058281548110611c1557fe5b906000526020600020906005020160030160068681548110611c3357fe5b906000526020600020016040518082805460018160011615610100020316600290048015611c985780601f10611c76576101008083540402835291820191611c98565b820191906000526020600020905b815481529060010190602001808311611c84575b50509150509081526020016040518091039020549050600060058381548110611cbd57fe5b906000526020600020906005020160040160068781548110611cdb57fe5b906000526020600020016040518082805460018160011615610100020316600290048015611d405780601f10611d1e576101008083540402835291820191611d40565b820191906000526020600020905b815481529060010190602001808311611d2c575b50509150509081526020016040518091039020549050866001600160a01b03166382bd7736848460068a81548110611d7457fe5b600091825260209091206040516001600160e01b031960e087901b16815260048101858152602482018590526060604483019081529290930180546002600019610100600184161502019091160460648301819052909392916084019084908015611e205780601f10611df557610100808354040283529160200191611e20565b820191906000526020600020905b815481529060010190602001808311611e0357829003601f168201915b5050945050505050600060405180830381600087803b158015611e4257600080fd5b505af1158015611e56573d6000803e3d6000fd5b50505050866001600160a01b03166321f0b972848360068a81548110611e7857fe5b600091825260209091206040516001600160e01b031960e087901b16815260048101858152602482018590526060604483019081529290930180546002600019610100600184161502019091160460648301819052909392916084019084908015611f245780601f10611ef957610100808354040283529160200191611f24565b820191906000526020600020905b815481529060010190602001808311611f0757829003601f168201915b5050945050505050600060405180830381600087803b158015611f4657600080fd5b505af1158015611f5a573d6000803e3d6000fd5b50505050600060058481548110611f6d57fe5b906000526020600020906005020160030160068881548110611f8b57fe5b906000526020600020016040518082805460018160011615610100020316600290048015611ff05780601f10611fce576101008083540402835291820191611ff0565b820191906000526020600020905b815481529060010190602001808311611fdc575b50509283525050604051908190036020019020555050600101611bfc565b505050600101611a6e565b50806001600160a01b0316637749bc116000546040518263ffffffff1660e01b815260040180828152602001915050600060405180830381600087803b15801561206257600080fd5b505af1158015612076573d6000803e3d6000fd5b5050604080516309f5e1d360e21b815233600482015290516001600160a01b03851693506327d7874c9250602480830192600092919082900301818387803b1580156120c157600080fd5b505af11580156120d5573d6000803e3d6000fd5b5050505050919050565b6000600584815481106120ee57fe5b90600052602060002090600502016004018383604051808383808284379190910194855250506040519283900360200190922054925050509392505050565b600254600160a01b900460ff1681565b600080600061214b336131e4565b9150915081801561217c57506005818154811061216457fe5b600091825260209091206002600590920201015460ff165b6121c7576040805162461bcd60e51b81526020600482015260176024820152761858dd1a5d994b59d85b59481b9bdd081c1c995cd95b9d604a1b604482015290519081900360640190fd5b6121d08461324b565b5060019392505050565b6000600483836040518083838082843791909101948552505060405192839003602001909220546001600160a01b03169250505092915050565b6001546001600160a01b0316331461222b57600080fd5b6005818154811061223857fe5b60009182526020822060059091020180546001600160a01b031916815590612263600183018261358c565b50600201805460ff1916905550565b6001546001600160a01b0316331461228957600080fd5b60006004838360405180838380828437919091019485525050604080519384900360209081018520546370a0823160e01b865230600487015291516001600160a01b0390921695506000948694506370a08231935060248082019391829003018186803b1580156122f957600080fd5b505afa15801561230d573d6000803e3d6000fd5b505050506040513d602081101561232357600080fd5b5051905060005b6005548110156123845760006005828154811061234357fe5b90600052602060002090600502016003018686604051808383808284379190910194855250506040519283900360200190922092909255505060010161232a565b506001546040805163a9059cbb60e01b81526001600160a01b0392831660048201526024810184905290519184169163a9059cbb916044808201926020929091908290030181600087803b1580156123db57600080fd5b505af11580156123ef573d6000803e3d6000fd5b505050506040513d602081101561240557600080fd5b505050505050565b6001546001600160a01b0316331461242457600080fd5b6005848154811061243157fe5b906000526020600020906005020160030182826040518083838082843780830192505050925050509081526020016040518091039020548311156124b0576040805162461bcd60e51b81526020600482015260116024820152706e6f7420656e6f75676820746f6b656e7360781b604482015290519081900360640190fd5b600060048383604051808383808284379190910194855250506040519283900360200190922054600580546001600160a01b03909216945061253e935087925090889081106124fb57fe5b906000526020600020906005020160030185856040518083838082843791909101948552505060405192839003602001909220549291505063ffffffff6132c516565b6005868154811061254b57fe5b90600052602060002090600502016003018484604051808383808284379190910194855250506040805193849003602090810185209590955560015463a9059cbb60e01b85526001600160a01b039081166004860152602485018a905290519086169463a9059cbb94604480820195509193508290030181600087803b1580156125d457600080fd5b505af11580156125e8573d6000803e3d6000fd5b505050506040513d60208110156125fe57600080fd5b5050600580547f0c10c9e44789f3adbd64aa8794d9faa07fc5fa0d85780f47c6a7502f5dfb39f79187918290811061263257fe5b906000526020600020906005020160030185856040518083838082843791909101948552505060408051938490036020908101852054958552840194909452505081519081900390910190a15050505050565b6001546001600160a01b0316331461269c57600080fd5b6126a5816132c0565b50565b6001546001600160a01b031633146126bf57600080fd5b80600583815481106126cd57fe5b6000918252602090912060059091020180546001600160a01b0319166001600160a01b03929092169190911790555050565b60008061270b3361330e565b90506005818154811061271a57fe5b90600052602060002090600502016004018484604051808383808284379190910194855250506040519283900360200190922054935050505092915050565b6000806127653361330e565b90506127a78185858080601f01602080910402602001604051908101604052809392919081815260200183838082843760009201919091525061339892505050565b949350505050565b60006001600160a01b0316600483836040518083838082843791909101948552505060405192839003602001909220546001600160a01b0316929092141591506128429050576040805162461bcd60e51b815260206004820152601a60248201527f756e617574686f72697a656420746f6b656e2061646472657373000000000000604482015290519081900360640190fd5b6000600483836040518083838082843791909101948552505060408051938490036020908101852054636eb1769f60e11b865233600487015230602487015291516001600160a01b039092169550889486945063dd62ed3e935060448082019391829003018186803b1580156128b757600080fd5b505afa1580156128cb573d6000803e3d6000fd5b505050506040513d60208110156128e157600080fd5b5051101561292f576040805162461bcd60e51b815260206004820152601660248201527536bab9ba1030b63637bb903a37903a3930b739b332b960511b604482015290519081900360640190fd5b604080516323b872dd60e01b81523360048201523060248201526044810186905290516001600160a01b038316916323b872dd9160648083019260209291908290030181600087803b15801561298457600080fd5b505af1158015612998573d6000803e3d6000fd5b505050506040513d60208110156129ae57600080fd5b505060058054612a07918691889081106129c457fe5b906000526020600020906005020160030185856040518083838082843791909101948552505060405192839003602001909220549291505063ffffffff61341d16565b60058681548110612a1457fe5b906000526020600020906005020160030184846040518083838082843780830192505050925050509081526020016040518091039020819055507f0c10c9e44789f3adbd64aa8794d9faa07fc5fa0d85780f47c6a7502f5dfb39f7856005878154811061263257fe5b6001546001600160a01b03163314612a9457600080fd5b600254600160a01b900460ff1615612aab57600080fd5b6002805460ff60a01b1916600160a01b1790556040517f9e87fac88ff661f02d44f95383c817fece4bce600a3dab7a54406878b965e75290600090a1565b600080612af53361330e565b9050600060048787604051808383808284379190910194855250506040519283900360200190922054600580546001600160a01b039092169450612b8593508792509085908110612b4257fe5b906000526020600020906005020160030189896040518083838082843791909101948552505060405192839003602001909220549291505063ffffffff6132c516565b60058381548110612b9257fe5b90600052602060002090600502016003018888604051808383808284379190910194855250506040805193849003602090810185209590955563a9059cbb60e01b84526001600160a01b038a81166004860152602485018a905290519086169463a9059cbb94604480820195509193508290030181600087803b158015612c1857600080fd5b505af1158015612c2c573d6000803e3d6000fd5b505050506040513d6020811015612c4257600080fd5b50600198975050505050505050565b6001546001600160a01b03163314612c6857600080fd5b8360058681548110612c7657fe5b906000526020600020906005020160000160006101000a8154816001600160a01b0302191690836001600160a01b03160217905550818160058781548110612cba57fe5b90600052602060002090600502016001019190612cd89291906135d0565b508260058681548110612ce757fe5b60009182526020909120600590910201600201805460ff19169115159190911790555050505050565b6001546001600160a01b03163314612d2757600080fd5b6001600160a01b038116612d3a57600080fd5b600280546001600160a01b0319166001600160a01b03838116919091179182905560408051929091168252517f54841e992da2f7bcaa3127409f02e1849c79072740593c398d6670f65f995fa7916020908290030190a150565b60006004838360405180838380828437919091019485525050604080516020948190038501812054636eb1769f60e11b82526001600160a01b038a81166004840152306024840152925192169463dd62ed3e945060448083019450909291829003018186803b1580156110fc57600080fd5b6002546001600160a01b031681565b6001546001600160a01b03163314612e2c57600080fd5b612e3461363e565b6001600160a01b0386168152604080516020601f870181900481028201810190925285815290869086908190840183828082843760009201829052506020808701958652871515604088015260058054600181018083558285528951919092027f036b6384b5eca791c62761152d0c79bb0604c104a5fb6f4eb0703f3154bb3db0810180546001600160a01b039093166001600160a01b0319909316929092178255975180519498929750899650909450612f15937f036b6384b5eca791c62761152d0c79bb0604c104a5fb6f4eb0703f3154bb3db190920192019061350e565b5060408201518160020160006101000a81548160ff02191690831515021790555050509050600060056001830381548110612f4c57fe5b906000526020600020906005020160030160036040518082805460018160011615610100020316600290048015612fba5780601f10612f98576101008083540402835291820191612fba565b820191906000526020600020905b815481529060010190602001808311612fa6575b50509150509081526020016040518091039020819055508360056001830381548110612fe257fe5b9060005260206000209060050201600401600360405180828054600181600116156101000203166002900480156130505780601f1061302e576101008083540402835291820191613050565b820191906000526020600020905b81548152906001019060200180831161303c575b505092835250506040519081900360200190205550505050505050565b60006127a78484848080601f01602080910402602001604051908101604052809392919081815260200183838082843760009201919091525061339892505050565b6000806130bb3361330e565b9050600060048787604051808383808284379190910194855250506040519283900360200190922054600580546001600160a01b03909216945061314b9350879250908590811061310857fe5b906000526020600020906005020160030189896040518083838082843791909101948552505060405192839003602001909220549291505063ffffffff61341d16565b6005838154811061315857fe5b9060005260206000209060050201600301888860405180838380828437919091019485525050604080519384900360209081018520959095556323b872dd60e01b84526001600160a01b038a81166004860152306024860152604485018a90529051908616946323b872dd94606480820195509193508290030181600087803b158015612c1857600080fd5b600080805b60055481101561323d57836001600160a01b03166005828154811061320a57fe5b60009182526020909120600590910201546001600160a01b0316141561323557600192509050613246565b6001016131e9565b50600091508190505b915091565b6000546040805160208082018590528251808303820181529183019092528051910120146132c0576040805162461bcd60e51b815260206004820152601860248201527f686173682d636861696e3a2077726f6e6720706172656e740000000000000000604482015290519081900360640190fd5b600055565b600061330783836040518060400160405280601e81526020017f536166654d6174683a207375627472616374696f6e206f766572666c6f770000815250613477565b9392505050565b600080600061331c846131e4565b9150915081801561334d57506005818154811061333557fe5b600091825260209091206002600590920201015460ff165b613307576040805162461bcd60e51b81526020600482015260176024820152761858dd1a5d994b59d85b59481b9bdd081c1c995cd95b9d604a1b604482015290519081900360640190fd5b6000600583815481106133a757fe5b9060005260206000209060050201600301826040518082805190602001908083835b602083106133e85780518252601f1990920191602091820191016133c9565b51815160209384036101000a600019018019909216911617905292019485525060405193849003019092205495945050505050565b600082820183811015613307576040805162461bcd60e51b815260206004820152601b60248201527f536166654d6174683a206164646974696f6e206f766572666c6f770000000000604482015290519081900360640190fd5b600081848411156135065760405162461bcd60e51b81526004018080602001828103825283818151815260200191508051906020019080838360005b838110156134cb5781810151838201526020016134b3565b50505050905090810190601f1680156134f85780820380516001836020036101000a031916815260200191505b509250505060405180910390fd5b505050900390565b828054600181600116156101000203166002900490600052602060002090601f016020900481019282601f1061354f57805160ff191683800117855561357c565b8280016001018555821561357c579182015b8281111561357c578251825591602001919060010190613561565b5061358892915061366a565b5090565b50805460018160011615610100020316600290046000825580601f106135b257506126a5565b601f0160209004906000526020600020908101906126a5919061366a565b828054600181600116156101000203166002900490600052602060002090601f016020900481019282601f106136115782800160ff1982351617855561357c565b8280016001018555821561357c579182015b8281111561357c578235825591602001919060010190613623565b604051806060016040528060006001600160a01b03168152602001606081526020016000151581525090565b61368491905b808211156135885760008155600101613670565b9056fea265627a7a72315820edb51ab9108b47ba3d7cf57bed4708e7255af57612dbeacaeead7791900cca4f64736f6c63430005100032",
    "source": "\n// File: contracts/common-contracts/SafeMath.sol\n\npragma solidity ^0.5.11;\n\nlibrary SafeMath {\n\n    function add(uint256 a, uint256 b) internal pure returns (uint256) {\n        uint256 c = a + b;\n        require(c >= a, \"SafeMath: addition overflow\");\n\n        return c;\n    }\n\n    function sub(uint256 a, uint256 b) internal pure returns (uint256) {\n        return sub(a, b, \"SafeMath: subtraction overflow\");\n    }\n\n    function sub(uint256 a, uint256 b, string memory errorMessage) internal pure returns (uint256) {\n        require(b <= a, errorMessage);\n        uint256 c = a - b;\n\n        return c;\n    }\n\n    function mul(uint256 a, uint256 b) internal pure returns (uint256) {\n        // Gas optimization: this is cheaper than requiring 'a' not being zero, but the\n        // benefit is lost if 'b' is also tested.\n        // See: https://github.com/OpenZeppelin/openzeppelin-contracts/pull/522\n        if (a == 0) {\n            return 0;\n        }\n\n        uint256 c = a * b;\n        require(c / a == b, \"SafeMath: multiplication overflow\");\n\n        return c;\n    }\n\n    function div(uint256 a, uint256 b) internal pure returns (uint256) {\n        return div(a, b, \"SafeMath: division by zero\");\n    }\n\n    function div(uint256 a, uint256 b, string memory errorMessage) internal pure returns (uint256) {\n        // Solidity only automatically asserts when dividing by 0\n        require(b > 0, errorMessage);\n        uint256 c = a / b;\n        // assert(a == b * c + a % b); // There is no case in which this doesn't hold\n\n        return c;\n    }\n\n    function mod(uint256 a, uint256 b) internal pure returns (uint256) {\n        return mod(a, b, \"SafeMath: modulo by zero\");\n    }\n\n    function mod(uint256 a, uint256 b, string memory errorMessage) internal pure returns (uint256) {\n        require(b != 0, errorMessage);\n        return a % b;\n    }\n}\n\n// File: contracts/common-contracts/AccessControl.sol\n\npragma solidity ^0.5.11;\n\ncontract AccessControl {\n    address public ceoAddress; // contract's owner and manager address\n    address public workerAddress; // contract's owner and manager address\n\n    bool public paused = false; // keeps track of whether or not contract is paused\n\n    /**\n    @notice fired when a new address is set as CEO\n    */\n    event CEOSet(address newCEO);\n    event WorkerSet(address newWorker);\n\n    /**\n    @notice fired when the contract is paused\n     */\n    event Paused();\n\n    /**\n    @notice fired when the contract is unpaused\n     */\n    event Unpaused();\n\n    // AccessControl constructor - sets default executive roles of contract to the sender account\n    constructor() public {\n        ceoAddress = msg.sender;\n        workerAddress = msg.sender;\n        emit CEOSet(ceoAddress);\n    }\n\n    // access modifier for CEO-only functionality\n    modifier onlyCEO() {\n        require(msg.sender == ceoAddress);\n        _;\n    }\n\n    // access modifier for Worker-only functionality\n    modifier onlyWorker() {\n        require(msg.sender == workerAddress);\n        _;\n    }\n\n    // assigns new CEO address - only available to the current CEO\n    function setCEO(address _newCEO) public onlyCEO {\n        require(_newCEO != address(0));\n        ceoAddress = _newCEO;\n        emit CEOSet(ceoAddress);\n    }\n\n    // assigns new Worker address - only available to the current CEO\n    function setWorker(address _newWorker) public onlyCEO {\n        require(_newWorker != address(0));\n        workerAddress = _newWorker;\n        emit WorkerSet(workerAddress);\n    }\n\n    // modifier to allow actions only when the contract IS NOT paused\n    modifier whenNotPaused() {\n        require(!paused);\n        _;\n    }\n\n    // modifier to allow actions only when the contract IS paused\n    modifier whenPaused {\n        require(paused);\n        _;\n    }\n\n    // pauses the smart contract - can only be called by the CEO\n    function pause() public onlyCEO whenNotPaused {\n        paused = true;\n        emit Paused();\n    }\n\n    // unpauses the smart contract - can only be called by the CEO\n    function unpause() public onlyCEO whenPaused {\n        paused = false;\n        emit Unpaused();\n    }\n}\n\n// File: contracts/common-contracts/ERC20Token.sol\n\npragma solidity ^0.5.11;\n\n//contract ERC20Token {\ninterface ERC20Token {\n    function totalSupply() external view returns (uint256);\n    function balanceOf(address account) external view returns (uint256);\n    function transfer(address recipient, uint256 amount) external returns (bool);\n    function allowance(address owner, address spender) external view returns (uint256);\n    function approve(address spender, uint256 amount) external returns (bool);\n    function transferFrom(address sender, address recipient, uint256 amount) external returns (bool);\n\n    event Transfer(\n        address indexed from,\n        address indexed to,\n        uint256 value\n    );\n\n    event Approval(\n        address indexed owner,\n        address indexed spender,\n        uint256 value\n    );\n}\n\n// File: contracts/common-contracts/HashChain.sol\n\npragma solidity ^0.5.11;\n\ncontract HashChain {\n    bytes32 public tail;\n\n    function _setTail(bytes32 _tail) internal {\n        tail = _tail;\n    }\n\n    function _consume(bytes32 _parent) internal {\n        require(keccak256(abi.encodePacked(_parent)) == tail, \"hash-chain: wrong parent\");\n        tail = _parent;\n    }\n\n}\n\n// File: contracts/treasury-example/Treasury.sol\n\npragma solidity ^0.5.14;\r\r\r\r\r\n\r\ncontract TreasuryFlat is HashChain, AccessControl {\r\n\r\n    using SafeMath for uint256;\r\n\r\n    event NewBalance(uint256 _gameID, uint256 _balance);\r\n    string public defaultTokenName;\r\n\r\n    struct Game {\r\n        address gameAddress;\r\n        string gameName;\r\n        bool isActive;\r\n        mapping(string => uint256) gameTokens;\r\n        mapping(string => uint256) maximumBets;\r\n    }\r\n\r\n    mapping(string => address) public tokens;\r\n    Game[] public games;\r\n    string[] public tokenNames;\r\n\r\n    constructor() public {\r\n        defaultTokenName = \"MANA\";\r\n        tokens[defaultTokenName] = 0x2A3df21E612d30Ac0CD63C3F80E1eB583A4744cC;\r\n        tokenNames.push(defaultTokenName);\r\n    }\r\n\r\n    function setDefaultToken(address _defaultToken, string memory _tokenName) internal {\r\n        addToken(_defaultToken, _tokenName);\r\n        defaultTokenName = _tokenName;\r\n    }\r\n\r\n    function updateDefaultToken(string memory _tokenName) public onlyCEO {\r\n        defaultTokenName = _tokenName;\r\n    }\r\n\r\n    function tokenAddress(string calldata _tokenName) external view returns (address) {\r\n        return tokens[_tokenName];\r\n    }\r\n\r\n    function tokenInboundTransfer(string calldata _tokenName, address _from, uint256 _amount)\r\n        external\r\n        returns (bool)\r\n    {\r\n        uint256 _gameID = getGameID(msg.sender);\r\n        ERC20Token _token = ERC20Token(tokens[_tokenName]);\r\n        games[_gameID].gameTokens[_tokenName] = games[_gameID].gameTokens[_tokenName].add(_amount);\r\n        _token.transferFrom(_from, address(this), _amount);\r\n        return true;\r\n    }\r\n\r\n    function tokenOutboundTransfer(string calldata _tokenName, address _to, uint256 _amount)\r\n        external\r\n        returns (bool)\r\n    {\r\n        uint256 gameID = getGameID(msg.sender);\r\n        ERC20Token _token = ERC20Token(tokens[_tokenName]);\r\n        games[gameID].gameTokens[_tokenName] = games[gameID].gameTokens[_tokenName].sub(_amount);\r\n        _token.transfer(_to, _amount);\r\n        return true;\r\n    }\r\n\r\n    function getGameID(address _gameAddress) private view returns (uint) {\r\n        (bool result, uint gameID) = findGameID(_gameAddress);\r\n        require(\r\n            result && games[gameID].isActive,\r\n            'active-game not present'\r\n        );\r\n        return gameID;\r\n    }\r\n\r\n    function findGameID(address _gameAddress) private view returns (bool, uint) {\r\n        for (uint i = 0; i < games.length; i++) {\r\n            if (games[i].gameAddress == _gameAddress) {\r\n                return (true, i);\r\n            }\r\n        }\r\n        return (false, 0);\r\n    }\r\n\r\n    function addGame(\r\n        address _newGameAddress,\r\n        string calldata _newGameName,\r\n        uint256 _maximumBet,\r\n        bool _isActive\r\n    ) external onlyCEO {\r\n        Game memory newGame;\r\n        newGame.gameAddress = _newGameAddress;\r\n        newGame.gameName = _newGameName;\r\n        newGame.isActive = _isActive;\r\n        uint256 _gameID = games.push(newGame);\r\n        games[_gameID - 1].gameTokens[defaultTokenName] = 0;\r\n        games[_gameID - 1].maximumBets[defaultTokenName] = _maximumBet;\r\n    }\r\n\r\n    function updateGame(\r\n        uint256 _gameID,\r\n        address _newGame,\r\n        bool _isActive,\r\n        string calldata _newGameName\r\n    ) external onlyCEO {\r\n        games[_gameID].gameAddress = _newGame;\r\n        games[_gameID].gameName = _newGameName;\r\n        games[_gameID].isActive = _isActive;\r\n    }\r\n\r\n    function updateGameAddress(\r\n        uint256 _gameID,\r\n        address _newGameAddress\r\n    ) external onlyCEO {\r\n        games[_gameID].gameAddress = _newGameAddress;\r\n    }\r\n\r\n    function removeGame(uint256 _gameID) external onlyCEO {\r\n        delete games[_gameID];\r\n    }\r\n\r\n    function updateMaximumBet(\r\n        uint256 _gameID,\r\n        uint256 _maximumBet,\r\n        string calldata _tokenName\r\n    ) external onlyCEO {\r\n        games[_gameID].maximumBets[_tokenName] = _maximumBet;\r\n    }\r\n\r\n    function gameMaximumBet(uint256 _gameID, string calldata _tokenName)\r\n        external\r\n        view\r\n        returns (uint256)\r\n    {\r\n        return games[_gameID].maximumBets[_tokenName];\r\n    }\r\n\r\n    function getMaximumBet(string calldata _tokenName)\r\n        external\r\n        view\r\n        returns (uint256)\r\n    {\r\n        uint256 _gameID = getGameID(msg.sender);\r\n        return games[_gameID].maximumBets[_tokenName];\r\n    }\r\n\r\n    function addToken(address _tokenAddress, string memory _tokenName)\r\n        public\r\n        onlyCEO\r\n    {\r\n        tokens[_tokenName] = _tokenAddress;\r\n        tokenNames.push(_tokenName);\r\n    }\r\n\r\n    function checkApproval(address _userAddress, string calldata _tokenName)\r\n        external\r\n        view\r\n        returns (uint256 approved)\r\n    {\r\n        approved = ERC20Token(tokens[_tokenName]).allowance(\r\n            _userAddress,\r\n            address(this)\r\n        );\r\n    }\r\n\r\n    function getBalanceByTokenName(string calldata _tokenName)\r\n        external\r\n        view\r\n        returns (uint256)\r\n    {\r\n        ERC20Token _token = ERC20Token(tokens[_tokenName]);\r\n        return _token.balanceOf(address(this));\r\n    }\r\n\r\n    function getBalanceByTokenAddress(address _tokenAddress)\r\n        external\r\n        view\r\n        returns (uint256)\r\n    {\r\n        ERC20Token _token = ERC20Token(_tokenAddress);\r\n        return _token.balanceOf(address(this));\r\n    }\r\n\r\n    function() external payable {\r\n        revert();\r\n    }\r\n\r\n    function addFunds(\r\n        uint256 _gameID,\r\n        uint256 _tokenAmount,\r\n        string calldata _tokenName\r\n    ) external {\r\n\r\n        require(\r\n            tokens[_tokenName] != address(0x0),\r\n            'unauthorized token address'\r\n        );\r\n\r\n        ERC20Token _token = ERC20Token(tokens[_tokenName]);\r\n\r\n        require(\r\n            _token.allowance(msg.sender, address(this)) >= _tokenAmount,\r\n            'must allow to transfer'\r\n        );\r\n\r\n        _token.transferFrom(msg.sender, address(this), _tokenAmount);\r\n        games[_gameID].gameTokens[_tokenName] = games[_gameID]\r\n            .gameTokens[_tokenName]\r\n            .add(_tokenAmount);\r\n\r\n        emit NewBalance(_gameID, games[_gameID].gameTokens[_tokenName]);\r\n    }\r\n\r\n    function checkAllocatedTokens(\r\n        string calldata _tokenName\r\n    ) external view returns (uint256) {\r\n        uint256 _gameID = getGameID(msg.sender);\r\n        return _checkAllocatedTokens(_gameID, _tokenName);\r\n    }\r\n\r\n    function _checkAllocatedTokens(\r\n        uint256 _gameID,\r\n        string memory _tokenName\r\n    ) internal view returns (uint256) {\r\n        return games[_gameID].gameTokens[_tokenName];\r\n    }\r\n\r\n    function checkAllocatedTokensPerGame(\r\n        uint256 _gameID,\r\n        string calldata _tokenName\r\n    ) external view returns (uint256) {\r\n        return _checkAllocatedTokens(_gameID, _tokenName);\r\n    }\r\n\r\n    function withdrawTokens(\r\n        uint256 _gameID,\r\n        uint256 _amount,\r\n        string calldata _tokenName\r\n    ) external onlyCEO {\r\n        require(\r\n            _amount <= games[_gameID].gameTokens[_tokenName],\r\n            'not enough tokens'\r\n        );\r\n\r\n        ERC20Token token = ERC20Token(tokens[_tokenName]);\r\n\r\n        games[_gameID].gameTokens[_tokenName] = games[_gameID]\r\n            .gameTokens[_tokenName]\r\n            .sub(_amount);\r\n        token.transfer(ceoAddress, _amount);\r\n\r\n        emit NewBalance(_gameID, games[_gameID].gameTokens[_tokenName]);\r\n    }\r\n\r\n    function withdrawMaxTokens(string calldata _tokenName)\r\n        external\r\n        onlyCEO\r\n    {\r\n        ERC20Token token = ERC20Token(tokens[_tokenName]);\r\n        uint256 amount = token.balanceOf(address(this));\r\n\r\n        for (uint256 i = 0; i < games.length; i++) {\r\n            games[i].gameTokens[_tokenName] = 0;\r\n        }\r\n\r\n        token.transfer(ceoAddress, amount);\r\n    }\r\n\r\n    function setTail(bytes32 _tail) external onlyCEO {\r\n        _setTail(_tail);\r\n    }\r\n\r\n    function consumeHash(bytes32 _localhash) external returns (bool) {\r\n        (bool result, uint gameID) = findGameID(msg.sender);\r\n        require(\r\n            result && games[gameID].isActive,\r\n            'active-game not present'\r\n        );\r\n        _consume(_localhash);\r\n        return true;\r\n    }\r\n\r\n    function migrateTreasury(\r\n        address _newTreasury\r\n    ) external onlyCEO returns (bool) {\r\n\r\n        TreasuryMigration nt = TreasuryMigration(_newTreasury);\r\n        nt.updateDefaultToken(defaultTokenName);\r\n\r\n        for (uint i = 0; i < games.length; i++) {\r\n            nt.addGame(\r\n                games[i].gameAddress,\r\n                games[i].gameName,\r\n                games[i].maximumBets[defaultTokenName],\r\n                games[i].isActive\r\n            );\r\n            GameMigration gm = GameMigration(games[i].gameAddress);\r\n            gm._changeTreasury(_newTreasury);\r\n        }\r\n\r\n        for (uint i = 0; i < tokenNames.length; i++) {\r\n            nt.addToken(\r\n                tokens[tokenNames[i]],\r\n                tokenNames[i]\r\n            );\r\n        }\r\n\r\n        for (uint t = 0; t < tokenNames.length; t++) {\r\n\r\n            ERC20Token token = ERC20Token(tokens[tokenNames[t]]);\r\n            uint256 totalAmount = token.balanceOf(address(this));\r\n\r\n            token.approve(_newTreasury, totalAmount);\r\n\r\n            for (uint256 j = 0; j < games.length; j++) {\r\n                uint256 amount = games[j].gameTokens[tokenNames[t]];\r\n                uint256 maxBet = games[j].maximumBets[tokenNames[t]];\r\n                nt.addFunds(j, amount, tokenNames[t]);\r\n                nt.updateMaximumBet(j, maxBet, tokenNames[t]);\r\n                games[j].gameTokens[tokenNames[t]] = 0;\r\n            }\r\n        }\r\n\r\n        nt.setTail(tail);\r\n        nt.setCEO(msg.sender);\r\n    }\r\n}\r\n\r\ninterface GameMigration {\r\n    function _changeTreasury(\r\n        address _newTreasuryAddress\r\n    ) external;\r\n}\r\n\r\ninterface TreasuryMigration {\r\n\r\n    function addGame(\r\n        address _newGameAddress,\r\n        string calldata _newGameName,\r\n        uint256 _maximumBet,\r\n        bool _isActive\r\n    ) external;\r\n\r\n    function addToken(\r\n        address _tokenAddress,\r\n        string calldata _tokenName\r\n    ) external;\r\n\r\n    function addFunds(\r\n        uint256 _gameID,\r\n        uint256 _tokenAmount,\r\n        string calldata _tokenName\r\n    ) external;\r\n\r\n    function setCEO(\r\n        address _newCEO\r\n    ) external;\r\n\r\n    function setTail(\r\n        bytes32 _tail\r\n    ) external;\r\n\r\n    function updateDefaultToken(\r\n        string calldata _tokenName\r\n    ) external;\r\n\r\n    function updateMaximumBet(\r\n        uint256 _gameID,\r\n        uint256 _maximumBet,\r\n        string calldata _tokenName\r\n    ) external;\r\n}\n",
    "sourcePath": "/Users/vitallymarinchenko/Development/contracts/contracts/flat-contracts/TreasuryFlat.sol",
    "compiler": {
        "name": "solc",
        "version": "0.5.16+commit.9c3226ce.Emscripten.clang"
    },
    "schemaVersion": "3.0.23",
    "updatedAt": "2020-05-22T10:07:29.207Z",
    "networkType": "ethereum",
    "devdoc": {
        "methods": {}
    },
    "userdoc": {
        "methods": {}
    }
}