{
  "contractName": "TreasuryBackgammon",
  "abi": [
    {
      "inputs": [
        {
          "internalType": "address",
          "name": "_treasuryAddress",
          "type": "address"
        }
      ],
      "payable": false,
      "stateMutability": "nonpayable",
      "type": "constructor"
    },
    {
      "anonymous": false,
      "inputs": [
        {
          "indexed": false,
          "internalType": "address",
          "name": "newCEO",
          "type": "address"
        }
      ],
      "name": "CEOSet",
      "type": "event"
    },
    {
      "anonymous": false,
      "inputs": [
        {
          "indexed": false,
          "internalType": "uint256",
          "name": "gameId",
          "type": "uint256"
        },
        {
          "indexed": true,
          "internalType": "address",
          "name": "winner",
          "type": "address"
        }
      ],
      "name": "GameResolved",
      "type": "event"
    },
    {
      "anonymous": false,
      "inputs": [
        {
          "indexed": false,
          "internalType": "uint256",
          "name": "gameId",
          "type": "uint256"
        },
        {
          "indexed": true,
          "internalType": "address",
          "name": "playerOne",
          "type": "address"
        },
        {
          "indexed": true,
          "internalType": "address",
          "name": "playerTwo",
          "type": "address"
        },
        {
          "indexed": false,
          "internalType": "string",
          "name": "tokenName",
          "type": "string"
        }
      ],
      "name": "GameStarted",
      "type": "event"
    },
    {
      "anonymous": false,
      "inputs": [],
      "name": "Paused",
      "type": "event"
    },
    {
      "anonymous": false,
      "inputs": [
        {
          "indexed": false,
          "internalType": "uint256",
          "name": "gameId",
          "type": "uint256"
        },
        {
          "indexed": true,
          "internalType": "address",
          "name": "player",
          "type": "address"
        }
      ],
      "name": "PlayerDropped",
      "type": "event"
    },
    {
      "anonymous": false,
      "inputs": [
        {
          "indexed": false,
          "internalType": "uint256",
          "name": "gameId",
          "type": "uint256"
        },
        {
          "indexed": true,
          "internalType": "address",
          "name": "player",
          "type": "address"
        },
        {
          "indexed": false,
          "internalType": "uint256",
          "name": "totalStaked",
          "type": "uint256"
        }
      ],
      "name": "StakeDoubled",
      "type": "event"
    },
    {
      "anonymous": false,
      "inputs": [
        {
          "indexed": false,
          "internalType": "uint256",
          "name": "gameId",
          "type": "uint256"
        },
        {
          "indexed": true,
          "internalType": "address",
          "name": "player",
          "type": "address"
        },
        {
          "indexed": false,
          "internalType": "uint256",
          "name": "stake",
          "type": "uint256"
        }
      ],
      "name": "StakeRaised",
      "type": "event"
    },
    {
      "anonymous": false,
      "inputs": [],
      "name": "Unpaused",
      "type": "event"
    },
    {
      "anonymous": false,
      "inputs": [
        {
          "indexed": false,
          "internalType": "address",
          "name": "newWorker",
          "type": "address"
        }
      ],
      "name": "WorkerSet",
      "type": "event"
    },
    {
      "constant": true,
      "inputs": [],
      "name": "ceoAddress",
      "outputs": [
        {
          "internalType": "address",
          "name": "",
          "type": "address"
        }
      ],
      "payable": false,
      "stateMutability": "view",
      "type": "function"
    },
    {
      "constant": true,
      "inputs": [
        {
          "internalType": "uint256",
          "name": "",
          "type": "uint256"
        }
      ],
      "name": "currentGames",
      "outputs": [
        {
          "internalType": "enum TreasuryBackgammon.GameState",
          "name": "state",
          "type": "uint8"
        },
        {
          "internalType": "address",
          "name": "playerOne",
          "type": "address"
        },
        {
          "internalType": "address",
          "name": "playerTwo",
          "type": "address"
        },
        {
          "internalType": "string",
          "name": "tokenName",
          "type": "string"
        },
        {
          "internalType": "uint256",
          "name": "stake",
          "type": "uint256"
        },
        {
          "internalType": "uint256",
          "name": "total",
          "type": "uint256"
        },
        {
          "internalType": "address",
          "name": "lastStaker",
          "type": "address"
        }
      ],
      "payable": false,
      "stateMutability": "view",
      "type": "function"
    },
    {
      "constant": true,
      "inputs": [],
      "name": "feePercent",
      "outputs": [
        {
          "internalType": "uint256",
          "name": "",
          "type": "uint256"
        }
      ],
      "payable": false,
      "stateMutability": "view",
      "type": "function"
    },
    {
      "constant": false,
      "inputs": [],
      "name": "pause",
      "outputs": [],
      "payable": false,
      "stateMutability": "nonpayable",
      "type": "function"
    },
    {
      "constant": true,
      "inputs": [],
      "name": "paused",
      "outputs": [
        {
          "internalType": "bool",
          "name": "",
          "type": "bool"
        }
      ],
      "payable": false,
      "stateMutability": "view",
      "type": "function"
    },
    {
      "constant": true,
      "inputs": [],
      "name": "safeFactor",
      "outputs": [
        {
          "internalType": "uint256",
          "name": "",
          "type": "uint256"
        }
      ],
      "payable": false,
      "stateMutability": "view",
      "type": "function"
    },
    {
      "constant": false,
      "inputs": [
        {
          "internalType": "address",
          "name": "_newCEO",
          "type": "address"
        }
      ],
      "name": "setCEO",
      "outputs": [],
      "payable": false,
      "stateMutability": "nonpayable",
      "type": "function"
    },
    {
      "constant": false,
      "inputs": [
        {
          "internalType": "address",
          "name": "_newWorker",
          "type": "address"
        }
      ],
      "name": "setWorker",
      "outputs": [],
      "payable": false,
      "stateMutability": "nonpayable",
      "type": "function"
    },
    {
      "constant": true,
      "inputs": [],
      "name": "treasury",
      "outputs": [
        {
          "internalType": "contract TreasuryInstance",
          "name": "",
          "type": "address"
        }
      ],
      "payable": false,
      "stateMutability": "view",
      "type": "function"
    },
    {
      "constant": false,
      "inputs": [],
      "name": "unpause",
      "outputs": [],
      "payable": false,
      "stateMutability": "nonpayable",
      "type": "function"
    },
    {
      "constant": true,
      "inputs": [
        {
          "internalType": "address",
          "name": "",
          "type": "address"
        }
      ],
      "name": "wins",
      "outputs": [
        {
          "internalType": "uint256",
          "name": "",
          "type": "uint256"
        }
      ],
      "payable": false,
      "stateMutability": "view",
      "type": "function"
    },
    {
      "constant": true,
      "inputs": [],
      "name": "workerAddress",
      "outputs": [
        {
          "internalType": "address",
          "name": "",
          "type": "address"
        }
      ],
      "payable": false,
      "stateMutability": "view",
      "type": "function"
    },
    {
      "constant": false,
      "inputs": [
        {
          "internalType": "uint256",
          "name": "_defaultStake",
          "type": "uint256"
        },
        {
          "internalType": "address",
          "name": "_playerOneAddress",
          "type": "address"
        },
        {
          "internalType": "address",
          "name": "_playerTwoAddress",
          "type": "address"
        },
        {
          "internalType": "string",
          "name": "_tokenName",
          "type": "string"
        }
      ],
      "name": "initializeGame",
      "outputs": [
        {
          "internalType": "bool",
          "name": "",
          "type": "bool"
        }
      ],
      "payable": false,
      "stateMutability": "nonpayable",
      "type": "function"
    },
    {
      "constant": false,
      "inputs": [
        {
          "internalType": "uint256",
          "name": "_gameId",
          "type": "uint256"
        },
        {
          "internalType": "address",
          "name": "_playerRaising",
          "type": "address"
        }
      ],
      "name": "raiseDouble",
      "outputs": [],
      "payable": false,
      "stateMutability": "nonpayable",
      "type": "function"
    },
    {
      "constant": false,
      "inputs": [
        {
          "internalType": "uint256",
          "name": "_gameId",
          "type": "uint256"
        },
        {
          "internalType": "address",
          "name": "_playerCalling",
          "type": "address"
        }
      ],
      "name": "callDouble",
      "outputs": [],
      "payable": false,
      "stateMutability": "nonpayable",
      "type": "function"
    },
    {
      "constant": false,
      "inputs": [
        {
          "internalType": "uint256",
          "name": "_gameId",
          "type": "uint256"
        },
        {
          "internalType": "address",
          "name": "_playerDropping",
          "type": "address"
        }
      ],
      "name": "dropGame",
      "outputs": [],
      "payable": false,
      "stateMutability": "nonpayable",
      "type": "function"
    },
    {
      "constant": true,
      "inputs": [
        {
          "internalType": "uint256",
          "name": "_value",
          "type": "uint256"
        }
      ],
      "name": "applyPercent",
      "outputs": [
        {
          "internalType": "uint256",
          "name": "",
          "type": "uint256"
        }
      ],
      "payable": false,
      "stateMutability": "view",
      "type": "function"
    },
    {
      "constant": false,
      "inputs": [
        {
          "internalType": "uint256",
          "name": "_gameId",
          "type": "uint256"
        },
        {
          "internalType": "address",
          "name": "_winPlayer",
          "type": "address"
        }
      ],
      "name": "resolveGame",
      "outputs": [],
      "payable": false,
      "stateMutability": "nonpayable",
      "type": "function"
    },
    {
      "constant": true,
      "inputs": [
        {
          "internalType": "address",
          "name": "playerOne",
          "type": "address"
        },
        {
          "internalType": "address",
          "name": "playerTwo",
          "type": "address"
        }
      ],
      "name": "getGameIdOfPlayers",
      "outputs": [
        {
          "internalType": "uint256",
          "name": "gameId",
          "type": "uint256"
        }
      ],
      "payable": false,
      "stateMutability": "pure",
      "type": "function"
    },
    {
      "constant": true,
      "inputs": [
        {
          "internalType": "uint256",
          "name": "gameId",
          "type": "uint256"
        },
        {
          "internalType": "address",
          "name": "player",
          "type": "address"
        }
      ],
      "name": "checkPlayerInGame",
      "outputs": [
        {
          "internalType": "bool",
          "name": "",
          "type": "bool"
        }
      ],
      "payable": false,
      "stateMutability": "view",
      "type": "function"
    },
    {
      "constant": false,
      "inputs": [
        {
          "internalType": "uint256",
          "name": "_newFeePercent",
          "type": "uint256"
        }
      ],
      "name": "changeFeePercent",
      "outputs": [],
      "payable": false,
      "stateMutability": "nonpayable",
      "type": "function"
    },
    {
      "constant": false,
      "inputs": [
        {
          "internalType": "uint256",
          "name": "_newFactor",
          "type": "uint256"
        }
      ],
      "name": "changeSafeFactor",
      "outputs": [],
      "payable": false,
      "stateMutability": "nonpayable",
      "type": "function"
    },
    {
      "constant": false,
      "inputs": [
        {
          "internalType": "address",
          "name": "_newTreasuryAddress",
          "type": "address"
        }
      ],
      "name": "changeTreasury",
      "outputs": [],
      "payable": false,
      "stateMutability": "nonpayable",
      "type": "function"
    },
    {
      "constant": false,
      "inputs": [
        {
          "internalType": "address",
          "name": "_newTreasuryAddress",
          "type": "address"
        }
      ],
      "name": "_changeTreasury",
      "outputs": [],
      "payable": false,
      "stateMutability": "nonpayable",
      "type": "function"
    }
  ],
  "bytecode": "0x608060409081526001805460ff60a01b19169055600255600a60035534801561002757600080fd5b506040516127923803806127928339818101604052602081101561004a57600080fd5b505160008054336001600160a01b031991821681179283905560018054909216179055604080516001600160a01b039092168252517ff97cbb4246b709036319093e5ff31674b9f6759076d153e1bea1f60392170fc0916020908290030190a1600680546001600160a01b0319166001600160a01b03929092169190911790556126b9806100d96000396000f3fe608060405234801561001057600080fd5b50600436106101585760003560e01c80637fd6f15c116100c3578063c26f6d441161007c578063c26f6d44146103e4578063c2bbcc7d1461040a578063c32776711461050d578063cbd88f4814610533578063cdc28d5b1461053b578063d04e662b1461056757610158565b80637fd6f15c1461032e5780638047a97a146103365780638456cb591461035c578063a4cd6b0914610364578063ada0e87e14610390578063b14f2a39146103be57610158565b806334eddf3e1161011557806334eddf3e146102d4578063396e79f2146102f15780633f4ba83a146102f95780635c975abb1461030157806361d027b3146103095780636de98e2c1461031157610158565b80630a0f81681461015d57806311ca230b1461018157806316be726d146101af578063174b9048146101de57806317a5818a1461020a57806327d7874c146102ae575b600080fd5b610165610593565b604080516001600160a01b039092168252519081900360200190f35b6101ad6004803603604081101561019757600080fd5b50803590602001356001600160a01b03166105a2565b005b6101cc600480360360208110156101c557600080fd5b50356108d8565b60408051918252519081900360200190f35b6101ad600480360360408110156101f457600080fd5b50803590602001356001600160a01b031661092e565b61029a6004803603608081101561022057600080fd5b8135916001600160a01b0360208201358116926040830135909116919081019060808101606082013564010000000081111561025b57600080fd5b82018360208201111561026d57600080fd5b8035906020019184600183028401116401000000008311171561028f57600080fd5b509092509050610cd7565b604080519115158252519081900360200190f35b6101ad600480360360208110156102c457600080fd5b50356001600160a01b031661154c565b6101ad600480360360208110156102ea57600080fd5b50356115d0565b6101cc611635565b6101ad61163b565b61029a6116a0565b6101656116b0565b6101ad6004803603602081101561032757600080fd5b50356116bf565b6101cc611725565b6101cc6004803603602081101561034c57600080fd5b50356001600160a01b031661172b565b6101ad61173d565b61029a6004803603604081101561037a57600080fd5b50803590602001356001600160a01b03166117a9565b6101cc600480360360408110156103a657600080fd5b506001600160a01b0381358116916020013516611801565b6101ad600480360360208110156103d457600080fd5b50356001600160a01b0316611848565b6101ad600480360360208110156103fa57600080fd5b50356001600160a01b0316611881565b6104276004803603602081101561042057600080fd5b5035611905565b6040518088600381111561043757fe5b60ff168152602001876001600160a01b03166001600160a01b03168152602001866001600160a01b03166001600160a01b0316815260200180602001858152602001848152602001836001600160a01b03166001600160a01b03168152602001828103825286818151815260200191508051906020019080838360005b838110156104cc5781810151838201526020016104b4565b50505050905090810190601f1680156104f95780820380516001836020036101000a031916815260200191505b509850505050505050505060405180910390f35b6101ad6004803603602081101561052357600080fd5b50356001600160a01b03166119e4565b610165611a43565b6101ad6004803603604081101561055157600080fd5b50803590602001356001600160a01b0316611a52565b6101ad6004803603604081101561057d57600080fd5b50803590602001356001600160a01b0316611dff565b6000546001600160a01b031681565b600154600160a01b900460ff16156105b957600080fd5b6001546001600160a01b031633146105d057600080fd5b81600160008281526004602052604090205460ff1660038111156105f057fe5b14610639576040805162461bcd60e51b81526020600482015260146024820152736d757374206265206f6e676f696e672067616d6560601b604482015290519081900360640190fd5b600083815260046020526040902054839083906001600160a01b0380831661010090920416148061068657506000828152600460205260409020600101546001600160a01b038281169116145b6106d4576040805162461bcd60e51b815260206004820152601a6024820152796d757374206265206f6e65206f662074686520706c617965727360301b604482015290519081900360640190fd5b6006546000868152600460208190526040909120908101546001600160a01b039092169163abbcb3789160020190879061070d906108d8565b6040516001600160e01b031960e086901b1681526001600160a01b0383166024820152604481018290526060600482019081528454600260001961010060018416150201909116046064830181905290918291608490910190869080156107b55780601f1061078a576101008083540402835291602001916107b5565b820191906000526020600020905b81548152906001019060200180831161079857829003601f168201915b5050945050505050602060405180830381600087803b1580156107d757600080fd5b505af11580156107eb573d6000803e3d6000fd5b505050506040513d602081101561080157600080fd5b505161083e5760405162461bcd60e51b81526004018080602001828103825260288152602001806125106028913960400191505060405180910390fd5b6001600160a01b03841660009081526005602052604090205461086890600163ffffffff6121a316565b6001600160a01b0385166000818152600560209081526040808320949094558882526004815290839020805460ff191660031790558251888152925191927fe1bef002fde33ebfa1c25a643ad667aa6dc80f7c8efb4b4161991251f8b4563a929081900390910190a25050505050565b6000806109036108f4600a6003546121fd90919063ffffffff16565b6103e89063ffffffff61225616565b90506109276103e861091b858463ffffffff6121fd16565b9063ffffffff61229816565b9392505050565b600154600160a01b900460ff161561094557600080fd5b6001546001600160a01b0316331461095c57600080fd5b81600260008281526004602052604090205460ff16600381111561097c57fe5b146109b85760405162461bcd60e51b81526004018080602001828103825260368152602001806125c26036913960400191505060405180910390fd5b600083815260046020526040902054839083906001600160a01b03808316610100909204161480610a0557506000828152600460205260409020600101546001600160a01b038281169116145b610a53576040805162461bcd60e51b815260206004820152601a6024820152796d757374206265206f6e65206f662074686520706c617965727360301b604482015290519081900360640190fd5b6000858152600460205260409020600501546001600160a01b0385811691161415610aaf5760405162461bcd60e51b815260040180806020018281038252602f8152602001806124e1602f913960400191505060405180910390fd5b60065460008681526004602081905260409091206005810154918101546001600160a01b039384169363abbcb378936002909301921690610aef906108d8565b6040516001600160e01b031960e086901b1681526001600160a01b038316602482015260448101829052606060048201908152845460026000196101006001841615020190911604606483018190529091829160849091019086908015610b975780601f10610b6c57610100808354040283529160200191610b97565b820191906000526020600020905b815481529060010190602001808311610b7a57829003601f168201915b5050945050505050602060405180830381600087803b158015610bb957600080fd5b505af1158015610bcd573d6000803e3d6000fd5b505050506040513d6020811015610be357600080fd5b5051610c205760405162461bcd60e51b81526004018080602001828103825260258152602001806126196025913960400191505060405180910390fd5b60008581526004602090815260408083206005908101546001600160a01b03168452909152902054610c5990600163ffffffff6121a316565b60008681526004602081815260408084206005808201546001600160a01b03908116875290845282862096909655938a9052918152825460ff191660031790925580518881529051928716927f9b289f44d11b987dd2c2ee86a87bbcc17b8afbaf93f22162209137f74e641932929181900390910190a25050505050565b600154600090600160a01b900460ff1615610cf157600080fd5b6001546001600160a01b03163314610d0857600080fd5b836001600160a01b0316856001600160a01b03161415610d6f576040805162461bcd60e51b815260206004820152601d60248201527f6d7573742062652074776f20646966666572656e7420706c6179657273000000604482015290519081900360640190fd5b60408051606087811b6bffffffffffffffffffffffff199081166020808501919091529188901b16603483015282518083036028018152604890920190925280519101206000808281526004602052604090205460ff166003811115610dd157fe5b1480610df95750600360008281526004602052604090205460ff166003811115610df757fe5b145b610e4a576040805162461bcd60e51b815260206004820152601e60248201527f63616e6e6f7420696e697469616c697a652072756e6e696e672067616d650000604482015290519081900360640190fd5b600654604051636e30199f60e01b8152602060048201908152602482018690526000926001600160a01b031691636e30199f9188918891908190604401848480828437600083820152604051601f909101601f191690920195506020945090925050508083038186803b158015610ec057600080fd5b505afa158015610ed4573d6000803e3d6000fd5b505050506040513d6020811015610eea57600080fd5b50516001600160a01b03161415610f325760405162461bcd60e51b815260040180806020018281038252602281526020018061263e6022913960400191505060405180910390fd5b6006546040516380221e6160e01b8152602060048201908152602482018690526001600160a01b03909216916380221e6191879187918190604401848480828437600083820152604051601f909101601f191690920195506020945090925050508083038186803b158015610fa657600080fd5b505afa158015610fba573d6000803e3d6000fd5b505050506040513d6020811015610fd057600080fd5b50518711156110105760405162461bcd60e51b81526004018080602001828103825260298152602001806125996029913960400191505060405180910390fd5b6006546040805163cb3006c360e01b81526001600160a01b0389811660048301908152602483019384526044830188905293169263cb3006c3928a92899289929091606401848480828437600083820152604051601f909101601f1916909201965060209550909350505081840390508186803b15801561109057600080fd5b505afa1580156110a4573d6000803e3d6000fd5b505050506040513d60208110156110ba57600080fd5b50516002546110d090899063ffffffff6121fd16565b111561110d5760405162461bcd60e51b81526004018080602001828103825260328152602001806124af6032913960400191505060405180910390fd5b6006546040805163cb3006c360e01b81526001600160a01b0388811660048301908152602483019384526044830188905293169263cb3006c3928992899289929091606401848480828437600083820152604051601f909101601f1916909201965060209550909350505081840390508186803b15801561118d57600080fd5b505afa1580156111a1573d6000803e3d6000fd5b505050506040513d60208110156111b757600080fd5b50516002546111cd90899063ffffffff6121fd16565b111561120a5760405162461bcd60e51b81526004018080602001828103825260328152602001806125386032913960400191505060405180910390fd5b60065460405163f628ca5760e01b81526001600160a01b038881166024830152604482018a90526060600483019081526064830187905292169163f628ca5791879187918b918d918190608401868680828437600081840152601f19601f82011690508083019250505095505050505050602060405180830381600087803b15801561129557600080fd5b505af11580156112a9573d6000803e3d6000fd5b505050506040513d60208110156112bf57600080fd5b505060065460405163f628ca5760e01b81526001600160a01b038781166024830152604482018a90526060600483019081526064830187905292169163f628ca5791879187918a918d918190608401868680828437600081840152601f19601f82011690508083019250505095505050505050602060405180830381600087803b15801561134c57600080fd5b505af1158015611360573d6000803e3d6000fd5b505050506040513d602081101561137657600080fd5b5061138190506123d6565b6040805160e081019091528060018152602001886001600160a01b03168152602001876001600160a01b0316815260200186868080601f016020809104026020016040519081016040528093929190818152602001838380828437600092019190915250505090825250602081018a90526040016114068a600263ffffffff6121fd16565b815260006020918201819052848152600490915260409020815181549293508392829060ff1916600183600381111561143b57fe5b02179055506020828101518254610100600160a81b0319166101006001600160a01b039283160217835560408401516001840180546001600160a01b03191691909216179055606083015180516114989260028501920190612413565b506080820151600382015560a0820151600482015560c090910151600590910180546001600160a01b0319166001600160a01b039283161790556040805184815260208101828152918101879052888316928a16917fecc5789cd78e28b3329706884a6aec06b93516d0cd70abd05123deea33c7d47c9186918a918a9160608201848480828437600083820152604051601f909101601f1916909201829003965090945050505050a3505095945050505050565b6000546001600160a01b0316331461156357600080fd5b6001600160a01b03811661157657600080fd5b600080546001600160a01b0319166001600160a01b03838116919091179182905560408051929091168252517ff97cbb4246b709036319093e5ff31674b9f6759076d153e1bea1f60392170fc0916020908290030190a150565b6000546001600160a01b031633146115e757600080fd5b60648110611630576040805162461bcd60e51b815260206004820152601160248201527006d7573742062652062656c6f772031303607c1b604482015290519081900360640190fd5b600355565b60025481565b6000546001600160a01b0316331461165257600080fd5b600154600160a01b900460ff1661166857600080fd5b6001805460ff60a01b191690556040517fa45f47fdea8a1efdd9029a5691c7f759c32b7c698632b563573e155625d1693390600090a1565b600154600160a01b900460ff1681565b6006546001600160a01b031681565b6000546001600160a01b031633146116d657600080fd5b60008111611720576040805162461bcd60e51b81526020600482015260126024820152716d7573742062652061626f7665207a65726f60701b604482015290519081900360640190fd5b600255565b60035481565b60056020526000908152604090205481565b6000546001600160a01b0316331461175457600080fd5b600154600160a01b900460ff161561176b57600080fd5b6001805460ff60a01b1916600160a01b1790556040517f9e87fac88ff661f02d44f95383c817fece4bce600a3dab7a54406878b965e75290600090a1565b6000828152600460205260408120546001600160a01b038381166101009092041614806117f257506000838152600460205260409020600101546001600160a01b038381169116145b156117fb575060015b92915050565b604080516bffffffffffffffffffffffff19606094851b81166020808401919091529390941b90931660348401528051602881850301815260489093019052815191012090565b6000546001600160a01b0316331461185f57600080fd5b600680546001600160a01b0319166001600160a01b0392909216919091179055565b6000546001600160a01b0316331461189857600080fd5b6001600160a01b0381166118ab57600080fd5b600180546001600160a01b0319166001600160a01b03838116919091179182905560408051929091168252517f54841e992da2f7bcaa3127409f02e1849c79072740593c398d6670f65f995fa7916020908290030190a150565b60046020908152600091825260409182902080546001808301546002808501805488516101009582161586026000190190911692909204601f810188900488028301880190985287825260ff851697939094046001600160a01b039081169692169493909290918301828280156119bd5780601f10611992576101008083540402835291602001916119bd565b820191906000526020600020905b8154815290600101906020018083116119a057829003601f168201915b5050505060038301546004840154600590940154929390929091506001600160a01b031687565b6006546001600160a01b0316331461185f576040805162461bcd60e51b815260206004820152601860248201527f6d7573742062652063757272656e742074726561737572790000000000000000604482015290519081900360640190fd5b6001546001600160a01b031681565b600154600160a01b900460ff1615611a6957600080fd5b6001546001600160a01b03163314611a8057600080fd5b81600260008281526004602052604090205460ff166003811115611aa057fe5b14611adc5760405162461bcd60e51b81526004018080602001828103825260368152602001806125c26036913960400191505060405180910390fd5b600083815260046020526040902054839083906001600160a01b03808316610100909204161480611b2957506000828152600460205260409020600101546001600160a01b038281169116145b611b77576040805162461bcd60e51b815260206004820152601a6024820152796d757374206265206f6e65206f662074686520706c617965727360301b604482015290519081900360640190fd5b6000858152600460205260409020600501546001600160a01b0385811691161415611bd35760405162461bcd60e51b815260040180806020018281038252602f81526020018061256a602f913960400191505060405180910390fd5b6006546000868152600460208190526040918290206003810154925163f628ca5760e01b81526001600160a01b038981166024830152604482018590526060938201938452600292830180546000196001821615610100020116939093046064830181905295169463f628ca579492938a9392909182916084019086908015611c9d5780601f10611c7257610100808354040283529160200191611c9d565b820191906000526020600020905b815481529060010190602001808311611c8057829003601f168201915b5050945050505050602060405180830381600087803b158015611cbf57600080fd5b505af1158015611cd3573d6000803e3d6000fd5b505050506040513d6020811015611ce957600080fd5b5051611d3c576040805162461bcd60e51b815260206004820152601e60248201527f63616c6c696e6720646f75626c65207472616e73666572206661696c65640000604482015290519081900360640190fd5b60008581526004602081905260409091206003810154910154611d649163ffffffff6121a316565b60008681526004602081905260409091209081019190915560030154611d9190600263ffffffff6121fd16565b6000868152600460208181526040928390206003810194909455835460ff1916600117845592015481518881529283015280516001600160a01b038716927fb1404d34aba26508768134b3809fc0a68c1eb5e40b3f00b69425d267aac7b62992908290030190a25050505050565b600154600160a01b900460ff1615611e1657600080fd5b6001546001600160a01b03163314611e2d57600080fd5b81600160008281526004602052604090205460ff166003811115611e4d57fe5b14611e96576040805162461bcd60e51b81526020600482015260146024820152736d757374206265206f6e676f696e672067616d6560601b604482015290519081900360640190fd5b600083815260046020526040902054839083906001600160a01b03808316610100909204161480611ee357506000828152600460205260409020600101546001600160a01b038281169116145b611f31576040805162461bcd60e51b815260206004820152601a6024820152796d757374206265206f6e65206f662074686520706c617965727360301b604482015290519081900360640190fd5b6000858152600460205260409020600501546001600160a01b0385811691161415611f8d5760405162461bcd60e51b81526004018080602001828103825260258152602001806126606025913960400191505060405180910390fd5b6006546000868152600460208190526040918290206003810154925163f628ca5760e01b81526001600160a01b038981166024830152604482018590526060938201938452600292830180546000196001821615610100020116939093046064830181905295169463f628ca579492938a93929091829160840190869080156120575780601f1061202c57610100808354040283529160200191612057565b820191906000526020600020905b81548152906001019060200180831161203a57829003601f168201915b5050945050505050602060405180830381600087803b15801561207957600080fd5b505af115801561208d573d6000803e3d6000fd5b505050506040513d60208110156120a357600080fd5b50516120f6576040805162461bcd60e51b815260206004820152601e60248201527f72616973696e6720646f75626c65207472616e73666572206661696c65640000604482015290519081900360640190fd5b6000858152600460208190526040909120805460ff191660021781556005810180546001600160a01b0388166001600160a01b03199091161790556003810154910154612142916121a3565b60008681526004602081815260409283902090910183905581518881529081019290925280516001600160a01b038716927fdddbcdc7fb5b4c4fe8c3932f585529467531b2a5efeccbc9670fc0ecb69a276592908290030190a25050505050565b600082820183811015610927576040805162461bcd60e51b815260206004820152601b60248201527f536166654d6174683a206164646974696f6e206f766572666c6f770000000000604482015290519081900360640190fd5b60008261220c575060006117fb565b8282028284828161221957fe5b04146109275760405162461bcd60e51b81526004018080602001828103825260218152602001806125f86021913960400191505060405180910390fd5b600061092783836040518060400160405280601e81526020017f536166654d6174683a207375627472616374696f6e206f766572666c6f7700008152506122da565b600061092783836040518060400160405280601a81526020017f536166654d6174683a206469766973696f6e206279207a65726f000000000000815250612371565b600081848411156123695760405162461bcd60e51b81526004018080602001828103825283818151815260200191508051906020019080838360005b8381101561232e578181015183820152602001612316565b50505050905090810190601f16801561235b5780820380516001836020036101000a031916815260200191505b509250505060405180910390fd5b505050900390565b600081836123c05760405162461bcd60e51b815260206004820181815283516024840152835190928392604490910191908501908083836000831561232e578181015183820152602001612316565b5060008385816123cc57fe5b0495945050505050565b6040805160e081019091528060008152600060208201819052604082018190526060808301526080820181905260a0820181905260c09091015290565b828054600181600116156101000203166002900490600052602060002090601f016020900481019282601f1061245457805160ff1916838001178555612481565b82800160010185558215612481579182015b82811115612481578251825591602001919060010190612466565b5061248d929150612491565b5090565b6124ab91905b8082111561248d5760008155600101612497565b9056fe5031206d75737420617070726f76652f616c6c6f7720747265617375727920636f6e7472616374206173207370656e64657264726f70206d75737420636f6d652066726f6d206f70706f7369746520706c617965722077686f20646f75626c656477696e20616d6f756e74207472616e73666572206661696c656420287265736f6c766547616d65295032206d75737420617070726f76652f616c6c6f7720747265617375727920636f6e7472616374206173207370656e64657263616c6c206d75737420636f6d652066726f6d206f70706f7369746520706c617965722077686f20646f75626c6564657863656564696e67206d6178696d756d2062657420646566696e656420696e2074726561737572796d7573742062652070726f706f73656420746f20646f75626c65206669727374206279206f6e65206f662074686520706c6179657273536166654d6174683a206d756c7469706c69636174696f6e206f766572666c6f7777696e20616d6f756e74207472616e73666572206661696c6564202864726f7047616d6529746f6b656e206973206e6f742064656c636172656420696e2074726561737572792173616d6520706c617965722063616e6e6f7420726169736520646f75626c6520616761696ea265627a7a723158206dfd3b03db48f80f8fa56f954fba23913fc6dfe7099f866d2643c7085264ffe164736f6c63430005100032",
  "source": "pragma solidity ^0.5.16;\r\n\r\nimport \"../common-contracts/SafeMath.sol\";\r\nimport \"../common-contracts/AccessControl.sol\";\r\nimport \"../common-contracts/TreasuryInstance.sol\";\r\n\r\ncontract TreasuryBackgammon is AccessControl {\r\n\r\n    using SafeMath for uint256;\r\n    enum GameState {NewGame, OnGoingGame, DoublingStage, GameEnded}\r\n\r\n    event GameStarted(\r\n        uint256 gameId,\r\n        address indexed playerOne,\r\n        address indexed playerTwo,\r\n        string tokenName\r\n    );\r\n\r\n    event StakeRaised(\r\n        uint256 gameId,\r\n        address indexed player,\r\n        uint256 stake\r\n    );\r\n\r\n    event StakeDoubled(\r\n        uint256 gameId,\r\n        address indexed player,\r\n        uint256 totalStaked\r\n    );\r\n\r\n    event PlayerDropped(\r\n        uint256 gameId,\r\n        address indexed player\r\n    );\r\n\r\n    event GameResolved(\r\n        uint256 gameId,\r\n        address indexed winner\r\n    );\r\n\r\n    struct Game {\r\n        GameState state;\r\n        address playerOne;\r\n        address playerTwo;\r\n        string tokenName;\r\n        uint256 stake;\r\n        uint256 total;\r\n        address lastStaker;\r\n    }\r\n\r\n    //safe factor to check allowance\r\n    uint256 public safeFactor = 64;\r\n    uint256 public feePercent = 10;\r\n\r\n    mapping(uint256 => Game) public currentGames;\r\n    mapping(address => uint256) public wins;\r\n\r\n    modifier onlyDoublingStage(uint256 gameId) {\r\n        require(\r\n            currentGames[gameId].state == GameState.DoublingStage,\r\n            \"must be proposed to double first by one of the players\"\r\n        );\r\n        _;\r\n    }\r\n\r\n    modifier onlyOnGoingGame(uint256 gameId) {\r\n        require(\r\n            currentGames[gameId].state == GameState.OnGoingGame,\r\n            \"must be ongoing game\"\r\n        );\r\n        _;\r\n    }\r\n\r\n    modifier isPlayerInGame(uint256 gameId, address player) {\r\n        require(\r\n            player == currentGames[gameId].playerOne ||\r\n            player == currentGames[gameId].playerTwo,\r\n            \"must be one of the players\"\r\n        );\r\n        _;\r\n    }\r\n\r\n    modifier onlyTreasury() {\r\n        require(\r\n            msg.sender == address(treasury),\r\n            'must be current treasury'\r\n        );\r\n        _;\r\n    }\r\n\r\n    TreasuryInstance public treasury;\r\n\r\n    constructor(address _treasuryAddress) public {\r\n        treasury = TreasuryInstance(_treasuryAddress);\r\n    }\r\n\r\n    function initializeGame(\r\n        uint256 _defaultStake,\r\n        address _playerOneAddress,\r\n        address _playerTwoAddress,\r\n        string calldata _tokenName\r\n    ) external whenNotPaused onlyWorker returns (bool) {\r\n\r\n        //_consume(_localhash); //if needed\r\n\r\n        require(\r\n            address(_playerOneAddress) != address(_playerTwoAddress),\r\n            \"must be two different players\"\r\n        );\r\n\r\n        uint256 gameId = uint256(\r\n            keccak256(abi.encodePacked(_playerOneAddress, _playerTwoAddress))\r\n        );\r\n\r\n        require(\r\n            currentGames[gameId].state == GameState.NewGame ||\r\n            currentGames[gameId].state == GameState.GameEnded,\r\n            \"cannot initialize running game\"\r\n        );\r\n\r\n        require(\r\n            treasury.tokenAddress(_tokenName) != address(0x0),\r\n            \"token is not delcared in treasury!\"\r\n        );\r\n\r\n        require(\r\n            _defaultStake <= treasury.getMaximumBet(_tokenName),\r\n            \"exceeding maximum bet defined in treasury\"\r\n        );\r\n\r\n        require(\r\n            _defaultStake.mul(safeFactor) <= treasury.checkApproval(_playerOneAddress, _tokenName),\r\n            \"P1 must approve/allow treasury contract as spender\"\r\n        );\r\n\r\n        require(\r\n            _defaultStake.mul(safeFactor) <= treasury.checkApproval(_playerTwoAddress, _tokenName),\r\n            \"P2 must approve/allow treasury contract as spender\"\r\n        );\r\n\r\n        //get original stakes from each player to start the game\r\n        treasury.tokenInboundTransfer(_tokenName, _playerOneAddress, _defaultStake);\r\n        treasury.tokenInboundTransfer(_tokenName, _playerTwoAddress, _defaultStake);\r\n\r\n        // set new status of the game\r\n        Game memory _game = Game(\r\n            GameState.OnGoingGame,\r\n            _playerOneAddress,\r\n            _playerTwoAddress,\r\n            _tokenName,\r\n            _defaultStake,\r\n            _defaultStake.mul(2),\r\n            address(0)\r\n        );\r\n\r\n        currentGames[gameId] = _game;\r\n\r\n        emit GameStarted(\r\n            gameId,\r\n            _playerOneAddress,\r\n            _playerTwoAddress,\r\n            _tokenName\r\n        );\r\n    }\r\n\r\n    function raiseDouble(uint256 _gameId, address _playerRaising)\r\n        external\r\n        whenNotPaused\r\n        onlyWorker\r\n        onlyOnGoingGame(_gameId)\r\n        isPlayerInGame(_gameId, _playerRaising)\r\n    {\r\n        require(\r\n            address(_playerRaising) !=\r\n            address(currentGames[_gameId].lastStaker),\r\n            \"same player cannot raise double again\"\r\n        );\r\n\r\n        require(\r\n            treasury.tokenInboundTransfer(\r\n                currentGames[_gameId].tokenName,\r\n                _playerRaising,\r\n                currentGames[_gameId].stake\r\n            ),\r\n            \"raising double transfer failed\"\r\n        );\r\n\r\n        currentGames[_gameId].state = GameState.DoublingStage;\r\n        currentGames[_gameId].lastStaker = _playerRaising;\r\n        currentGames[_gameId].total = currentGames[_gameId].total.add(\r\n            currentGames[_gameId].stake\r\n        );\r\n\r\n        emit StakeRaised(\r\n            _gameId,\r\n            _playerRaising,\r\n            currentGames[_gameId].total\r\n        );\r\n    }\r\n\r\n    function callDouble(uint256 _gameId, address _playerCalling)\r\n        external\r\n        whenNotPaused\r\n        onlyWorker\r\n        onlyDoublingStage(_gameId)\r\n        isPlayerInGame(_gameId, _playerCalling)\r\n    {\r\n        require(\r\n            address(_playerCalling) !=\r\n            address(currentGames[_gameId].lastStaker),\r\n            \"call must come from opposite player who doubled\"\r\n        );\r\n\r\n        require(\r\n            treasury.tokenInboundTransfer(\r\n                currentGames[_gameId].tokenName,\r\n                _playerCalling,\r\n                currentGames[_gameId].stake\r\n            ),\r\n            \"calling double transfer failed\"\r\n        );\r\n\r\n        currentGames[_gameId].total = currentGames[_gameId].total.add(\r\n            currentGames[_gameId].stake\r\n        );\r\n\r\n        currentGames[_gameId].stake = currentGames[_gameId].stake.mul(2);\r\n        currentGames[_gameId].state = GameState.OnGoingGame;\r\n\r\n        emit StakeDoubled(\r\n            _gameId,\r\n            _playerCalling,\r\n            currentGames[_gameId].total\r\n        );\r\n    }\r\n\r\n    function dropGame(uint256 _gameId, address _playerDropping)\r\n        external\r\n        whenNotPaused\r\n        onlyWorker\r\n        onlyDoublingStage(_gameId)\r\n        isPlayerInGame(_gameId, _playerDropping)\r\n    {\r\n        require(\r\n            _playerDropping != currentGames[_gameId].lastStaker,\r\n            \"drop must come from opposite player who doubled\"\r\n        );\r\n\r\n        require(\r\n            treasury.tokenOutboundTransfer(\r\n                currentGames[_gameId].tokenName,\r\n                currentGames[_gameId].lastStaker,\r\n                applyPercent(currentGames[_gameId].total)\r\n\r\n            ),\r\n            \"win amount transfer failed (dropGame)\"\r\n        );\r\n\r\n        wins[currentGames[_gameId].lastStaker] = wins[currentGames[_gameId].lastStaker].add(1);\r\n        currentGames[_gameId].state = GameState.GameEnded;\r\n\r\n        emit PlayerDropped(\r\n            _gameId,\r\n            _playerDropping\r\n        );\r\n    }\r\n\r\n    function applyPercent(uint256 _value) public view returns (uint256) {\r\n        uint256 _feePercent = uint256(1000).sub(feePercent.mul(10));\r\n        return _value.mul(_feePercent).div(1000);\r\n    }\r\n\r\n    function resolveGame(uint256 _gameId, address _winPlayer)\r\n        external\r\n        whenNotPaused\r\n        onlyWorker\r\n        onlyOnGoingGame(_gameId)\r\n        isPlayerInGame(_gameId, _winPlayer)\r\n    {\r\n\r\n        require(\r\n            treasury.tokenOutboundTransfer(\r\n                currentGames[_gameId].tokenName,\r\n                _winPlayer,\r\n                applyPercent(currentGames[_gameId].total)\r\n            ),\r\n            \"win amount transfer failed (resolveGame)\"\r\n        );\r\n\r\n        wins[_winPlayer] = wins[_winPlayer].add(1);\r\n        currentGames[_gameId].state = GameState.GameEnded;\r\n\r\n        emit GameResolved(\r\n            _gameId,\r\n            _winPlayer\r\n        );\r\n    }\r\n\r\n    function getGameIdOfPlayers(address playerOne, address playerTwo)\r\n        external\r\n        pure\r\n        returns (uint256 gameId)\r\n    {\r\n        gameId = uint256(keccak256(abi.encodePacked(playerOne, playerTwo)));\r\n    }\r\n\r\n    function checkPlayerInGame(uint256 gameId, address player)\r\n        external\r\n        view\r\n        returns (bool)\r\n    {\r\n        if (\r\n            player == currentGames[gameId].playerOne ||\r\n            player == currentGames[gameId].playerTwo\r\n        ) return true;\r\n    }\r\n\r\n    function changeFeePercent(uint256 _newFeePercent) external onlyCEO {\r\n        require(_newFeePercent < 100, 'must be below 100');\r\n        feePercent = _newFeePercent;\r\n    }\r\n\r\n    function changeSafeFactor(uint256 _newFactor) external onlyCEO {\r\n        require(_newFactor > 0, 'must be above zero');\r\n        safeFactor = _newFactor;\r\n    }\r\n\r\n    function changeTreasury(address _newTreasuryAddress) external onlyCEO {\r\n        treasury = TreasuryInstance(_newTreasuryAddress);\r\n    }\r\n\r\n    function _changeTreasury(address _newTreasuryAddress) external onlyTreasury {\r\n        treasury = TreasuryInstance(_newTreasuryAddress);\r\n    }\r\n}",
  "sourcePath": "/Users/vitallymarinchenko/Development/contracts/contracts/treasury-example/TreasuryBackgammon.sol",
  "compiler": {
    "name": "solc",
    "version": "0.5.16+commit.9c3226ce.Emscripten.clang"
  },
  "schemaVersion": "3.0.23",
  "updatedAt": "2020-05-22T10:07:29.292Z",
  "networkType": "ethereum",
  "devdoc": {
    "methods": {}
  },
  "userdoc": {
    "methods": {}
  }
}