{
  "contractName": "TreasurySlots",
  "abi": [
    {
      "inputs": [
        {
          "internalType": "address",
          "name": "_treasury",
          "type": "address"
        },
        {
          "internalType": "uint256",
          "name": "factor1",
          "type": "uint256"
        },
        {
          "internalType": "uint256",
          "name": "factor2",
          "type": "uint256"
        },
        {
          "internalType": "uint256",
          "name": "factor3",
          "type": "uint256"
        },
        {
          "internalType": "uint256",
          "name": "factor4",
          "type": "uint256"
        },
        {
          "internalType": "uint256",
          "name": "_maxBet",
          "type": "uint256"
        }
      ],
      "payable": false,
      "stateMutability": "nonpayable",
      "type": "constructor"
    },
    {
      "anonymous": false,
      "inputs": [
        {
          "indexed": false,
          "internalType": "address",
          "name": "newCEO",
          "type": "address"
        }
      ],
      "name": "CEOSet",
      "type": "event"
    },
    {
      "anonymous": false,
      "inputs": [
        {
          "indexed": false,
          "internalType": "address[]",
          "name": "_players",
          "type": "address[]"
        },
        {
          "indexed": true,
          "internalType": "string",
          "name": "_tokenName",
          "type": "string"
        },
        {
          "indexed": false,
          "internalType": "uint256",
          "name": "_landID",
          "type": "uint256"
        },
        {
          "indexed": true,
          "internalType": "uint256",
          "name": "_number",
          "type": "uint256"
        },
        {
          "indexed": true,
          "internalType": "uint256",
          "name": "_machineID",
          "type": "uint256"
        },
        {
          "indexed": false,
          "internalType": "uint256[]",
          "name": "_winAmounts",
          "type": "uint256[]"
        }
      ],
      "name": "GameResult",
      "type": "event"
    },
    {
      "anonymous": false,
      "inputs": [],
      "name": "Paused",
      "type": "event"
    },
    {
      "anonymous": false,
      "inputs": [
        {
          "indexed": false,
          "internalType": "string",
          "name": "_tokenName",
          "type": "string"
        },
        {
          "indexed": true,
          "internalType": "uint256",
          "name": "_landID",
          "type": "uint256"
        },
        {
          "indexed": false,
          "internalType": "uint256",
          "name": "_number",
          "type": "uint256"
        },
        {
          "indexed": true,
          "internalType": "uint256",
          "name": "_machineID",
          "type": "uint256"
        },
        {
          "indexed": false,
          "internalType": "uint256[]",
          "name": "_winAmounts",
          "type": "uint256[]"
        }
      ],
      "name": "SpinResult",
      "type": "event"
    },
    {
      "anonymous": false,
      "inputs": [],
      "name": "Unpaused",
      "type": "event"
    },
    {
      "anonymous": false,
      "inputs": [
        {
          "indexed": false,
          "internalType": "address",
          "name": "newWorker",
          "type": "address"
        }
      ],
      "name": "WorkerSet",
      "type": "event"
    },
    {
      "constant": true,
      "inputs": [],
      "name": "betSize",
      "outputs": [
        {
          "internalType": "uint256",
          "name": "",
          "type": "uint256"
        }
      ],
      "payable": false,
      "stateMutability": "view",
      "type": "function"
    },
    {
      "constant": true,
      "inputs": [
        {
          "internalType": "uint256",
          "name": "",
          "type": "uint256"
        }
      ],
      "name": "bets",
      "outputs": [
        {
          "internalType": "enum TreasurySlots.BetType",
          "name": "betType",
          "type": "uint8"
        },
        {
          "internalType": "address",
          "name": "player",
          "type": "address"
        },
        {
          "internalType": "uint256",
          "name": "number",
          "type": "uint256"
        },
        {
          "internalType": "uint256",
          "name": "value",
          "type": "uint256"
        },
        {
          "internalType": "string",
          "name": "tokenName",
          "type": "string"
        }
      ],
      "payable": false,
      "stateMutability": "view",
      "type": "function"
    },
    {
      "constant": true,
      "inputs": [],
      "name": "ceoAddress",
      "outputs": [
        {
          "internalType": "address",
          "name": "",
          "type": "address"
        }
      ],
      "payable": false,
      "stateMutability": "view",
      "type": "function"
    },
    {
      "constant": true,
      "inputs": [],
      "name": "maxBet",
      "outputs": [
        {
          "internalType": "uint256",
          "name": "",
          "type": "uint256"
        }
      ],
      "payable": false,
      "stateMutability": "view",
      "type": "function"
    },
    {
      "constant": false,
      "inputs": [],
      "name": "pause",
      "outputs": [],
      "payable": false,
      "stateMutability": "nonpayable",
      "type": "function"
    },
    {
      "constant": true,
      "inputs": [],
      "name": "paused",
      "outputs": [
        {
          "internalType": "bool",
          "name": "",
          "type": "bool"
        }
      ],
      "payable": false,
      "stateMutability": "view",
      "type": "function"
    },
    {
      "constant": false,
      "inputs": [
        {
          "internalType": "address",
          "name": "_newCEO",
          "type": "address"
        }
      ],
      "name": "setCEO",
      "outputs": [],
      "payable": false,
      "stateMutability": "nonpayable",
      "type": "function"
    },
    {
      "constant": false,
      "inputs": [
        {
          "internalType": "address",
          "name": "_newWorker",
          "type": "address"
        }
      ],
      "name": "setWorker",
      "outputs": [],
      "payable": false,
      "stateMutability": "nonpayable",
      "type": "function"
    },
    {
      "constant": false,
      "inputs": [],
      "name": "unpause",
      "outputs": [],
      "payable": false,
      "stateMutability": "nonpayable",
      "type": "function"
    },
    {
      "constant": true,
      "inputs": [],
      "name": "workerAddress",
      "outputs": [
        {
          "internalType": "address",
          "name": "",
          "type": "address"
        }
      ],
      "payable": false,
      "stateMutability": "view",
      "type": "function"
    },
    {
      "constant": false,
      "inputs": [
        {
          "internalType": "uint256",
          "name": "_betType",
          "type": "uint256"
        },
        {
          "internalType": "address",
          "name": "_player",
          "type": "address"
        },
        {
          "internalType": "uint256",
          "name": "_number",
          "type": "uint256"
        },
        {
          "internalType": "uint256",
          "name": "_value",
          "type": "uint256"
        },
        {
          "internalType": "string",
          "name": "_tokenName",
          "type": "string"
        }
      ],
      "name": "createBet",
      "outputs": [],
      "payable": false,
      "stateMutability": "nonpayable",
      "type": "function"
    },
    {
      "constant": false,
      "inputs": [
        {
          "internalType": "address[]",
          "name": "_players",
          "type": "address[]"
        },
        {
          "internalType": "uint256",
          "name": "_landID",
          "type": "uint256"
        },
        {
          "internalType": "uint256",
          "name": "_machineID",
          "type": "uint256"
        },
        {
          "internalType": "uint256[]",
          "name": "_betIDs",
          "type": "uint256[]"
        },
        {
          "internalType": "uint256[]",
          "name": "_betValues",
          "type": "uint256[]"
        },
        {
          "internalType": "uint256[]",
          "name": "_betAmount",
          "type": "uint256[]"
        },
        {
          "internalType": "bytes32",
          "name": "_localhash",
          "type": "bytes32"
        },
        {
          "internalType": "string",
          "name": "_tokenName",
          "type": "string"
        }
      ],
      "name": "play",
      "outputs": [],
      "payable": false,
      "stateMutability": "nonpayable",
      "type": "function"
    },
    {
      "constant": false,
      "inputs": [
        {
          "internalType": "bytes32",
          "name": "_localhash",
          "type": "bytes32"
        },
        {
          "internalType": "uint256",
          "name": "_machineID",
          "type": "uint256"
        },
        {
          "internalType": "uint256",
          "name": "_landID",
          "type": "uint256"
        },
        {
          "internalType": "string",
          "name": "_tokenName",
          "type": "string"
        }
      ],
      "name": "launch",
      "outputs": [
        {
          "internalType": "uint256[]",
          "name": "",
          "type": "uint256[]"
        },
        {
          "internalType": "uint256",
          "name": "number",
          "type": "uint256"
        }
      ],
      "payable": false,
      "stateMutability": "nonpayable",
      "type": "function"
    },
    {
      "constant": false,
      "inputs": [
        {
          "internalType": "uint256",
          "name": "_factor1",
          "type": "uint256"
        },
        {
          "internalType": "uint256",
          "name": "_factor2",
          "type": "uint256"
        },
        {
          "internalType": "uint256",
          "name": "_factor3",
          "type": "uint256"
        },
        {
          "internalType": "uint256",
          "name": "_factor4",
          "type": "uint256"
        }
      ],
      "name": "updateFactors",
      "outputs": [],
      "payable": false,
      "stateMutability": "nonpayable",
      "type": "function"
    },
    {
      "constant": false,
      "inputs": [
        {
          "internalType": "uint256",
          "name": "_newMaxBet",
          "type": "uint256"
        }
      ],
      "name": "updateMaxBet",
      "outputs": [],
      "payable": false,
      "stateMutability": "nonpayable",
      "type": "function"
    },
    {
      "constant": true,
      "inputs": [
        {
          "internalType": "uint256",
          "name": "_position",
          "type": "uint256"
        }
      ],
      "name": "getPayoutFactor",
      "outputs": [
        {
          "internalType": "uint16",
          "name": "",
          "type": "uint16"
        }
      ],
      "payable": false,
      "stateMutability": "view",
      "type": "function"
    },
    {
      "constant": true,
      "inputs": [],
      "name": "getTreasuryAddress",
      "outputs": [
        {
          "internalType": "address",
          "name": "",
          "type": "address"
        }
      ],
      "payable": false,
      "stateMutability": "view",
      "type": "function"
    },
    {
      "constant": true,
      "inputs": [],
      "name": "getNecessaryBalance",
      "outputs": [
        {
          "internalType": "uint256",
          "name": "",
          "type": "uint256"
        }
      ],
      "payable": false,
      "stateMutability": "view",
      "type": "function"
    },
    {
      "constant": true,
      "inputs": [],
      "name": "getAmountBets",
      "outputs": [
        {
          "internalType": "uint256",
          "name": "",
          "type": "uint256"
        }
      ],
      "payable": false,
      "stateMutability": "view",
      "type": "function"
    },
    {
      "constant": false,
      "inputs": [
        {
          "internalType": "address",
          "name": "_newTreasuryAddress",
          "type": "address"
        }
      ],
      "name": "changeTreasury",
      "outputs": [],
      "payable": false,
      "stateMutability": "nonpayable",
      "type": "function"
    },
    {
      "constant": false,
      "inputs": [
        {
          "internalType": "address",
          "name": "_newTreasuryAddress",
          "type": "address"
        }
      ],
      "name": "_changeTreasury",
      "outputs": [],
      "payable": false,
      "stateMutability": "nonpayable",
      "type": "function"
    }
  ],
  "bytecode": "0x60806040526001805460ff60a01b1916905534801561001d57600080fd5b5060405161203b38038061203b833981810160405260c081101561004057600080fd5b5080516020808301516040808501516060860151608087015160a09097015160008054336001600160a01b03199182168117928390556001805490921617905584516001600160a01b039091168152935196979496929591949390927ff97cbb4246b709036319093e5ff31674b9f6759076d153e1bea1f60392170fc0929181900390910190a1600780546001600160a01b0319166001600160a01b0397909716969096179095556002805460c09590951b90941760d09390931b9290921760e09190911b1760f09190911b179055600355611f1a806101216000396000f3fe608060405234801561001057600080fd5b50600436106101375760003560e01c80635d1d3e26116100b8578063b14f2a391161007c578063b14f2a3914610758578063c26f6d441461077e578063c3277671146107a4578063cbd88f48146107ca578063e0024604146107d2578063fc98cec1146107da57610137565b80635d1d3e26146106f45780635ef8357b146106fc57806373d32adf1461072b5780638456cb5914610733578063a55cd51c1461073b57610137565b80633f4ba83a116100ff5780633f4ba83a146102ff5780634d9a9be2146103075780634f2ee50d1461033b5780635c3b65ac146105fc5780635c975abb146106d857610137565b80630a0f81681461013c57806322af00fa1461016057806327d7874c1461022e5780632e5b2168146102565780633ae2492e14610270575b600080fd5b6101446107e2565b604080516001600160a01b039092168252519081900360200190f35b61017d6004803603602081101561017657600080fd5b50356107f1565b6040518086801561018a57fe5b60ff168152602001856001600160a01b03166001600160a01b0316815260200184815260200183815260200180602001828103825283818151815260200191508051906020019080838360005b838110156101ef5781810151838201526020016101d7565b50505050905090810190601f16801561021c5780820380516001836020036101000a031916815260200191505b50965050505050505060405180910390f35b6102546004803603602081101561024457600080fd5b50356001600160a01b03166108c8565b005b61025e61094c565b60408051918252519081900360200190f35b610254600480360360a081101561028657600080fd5b8135916001600160a01b036020820135169160408201359160608101359181019060a081016080820135600160201b8111156102c157600080fd5b8201836020820111156102d357600080fd5b803590602001918460018302840111600160201b831117156102f457600080fd5b509092509050610952565b6102546109cb565b6103246004803603602081101561031d57600080fd5b5035610a30565b6040805161ffff9092168252519081900360200190f35b610254600480360361010081101561035257600080fd5b810190602081018135600160201b81111561036c57600080fd5b82018360208201111561037e57600080fd5b803590602001918460208302840111600160201b8311171561039f57600080fd5b9190808060200260200160405190810160405280939291908181526020018383602002808284376000920191909152509295843595602086013595919450925060608101915060400135600160201b8111156103fa57600080fd5b82018360208201111561040c57600080fd5b803590602001918460208302840111600160201b8311171561042d57600080fd5b9190808060200260200160405190810160405280939291908181526020018383602002808284376000920191909152509295949360208101935035915050600160201b81111561047c57600080fd5b82018360208201111561048e57600080fd5b803590602001918460208302840111600160201b831117156104af57600080fd5b9190808060200260200160405190810160405280939291908181526020018383602002808284376000920191909152509295949360208101935035915050600160201b8111156104fe57600080fd5b82018360208201111561051057600080fd5b803590602001918460208302840111600160201b8311171561053157600080fd5b91908080602002602001604051908101604052809392919081815260200183836020028082843760009201919091525092958435959094909350604081019250602001359050600160201b81111561058857600080fd5b82018360208201111561059a57600080fd5b803590602001918460018302840111600160201b831117156105bb57600080fd5b91908080601f016020809104026020016040519081016040528093929190818152602001838380828437600092019190915250929550610a38945050505050565b61067d6004803603608081101561061257600080fd5b81359160208101359160408201359190810190608081016060820135600160201b81111561063f57600080fd5b82018360208201111561065157600080fd5b803590602001918460018302840111600160201b8311171561067257600080fd5b50909250905061141b565b6040518080602001838152602001828103825284818151815260200191508051906020019060200280838360005b838110156106c35781810151838201526020016106ab565b50505050905001935050505060405180910390f35b6106e061149f565b604080519115158252519081900360200190f35b61025e6114af565b6102546004803603608081101561071257600080fd5b50803590602081013590604081013590606001356114b5565b61025e6114f5565b61025461151c565b6102546004803603602081101561075157600080fd5b5035611588565b6102546004803603602081101561076e57600080fd5b50356001600160a01b03166115a4565b6102546004803603602081101561079457600080fd5b50356001600160a01b03166115dd565b610254600480360360208110156107ba57600080fd5b50356001600160a01b0316611661565b6101446116c0565b6101446116cf565b61025e6116de565b6000546001600160a01b031681565b600681815481106107fe57fe5b6000918252602091829020600491909102018054600180830154600280850154600386018054604080516101009783161588026000190190921694909404601f81018a90048a0282018a0190945283815260ff87169950949095046001600160a01b031696929590949093929091908301828280156108be5780601f10610893576101008083540402835291602001916108be565b820191906000526020600020905b8154815290600101906020018083116108a157829003601f168201915b5050505050905085565b6000546001600160a01b031633146108df57600080fd5b6001600160a01b0381166108f257600080fd5b600080546001600160a01b0319166001600160a01b03838116919091179182905560408051929091168252517ff97cbb4246b709036319093e5ff31674b9f6759076d153e1bea1f60392170fc0916020908290030190a150565b60035481565b600154600160a01b900460ff161561096957600080fd5b6000546001600160a01b0316331461098057600080fd5b6109c38686868686868080601f0160208091040260200160405190810160405280939291908181526020018383808284376000920191909152506116e492505050565b505050505050565b6000546001600160a01b031633146109e257600080fd5b600154600160a01b900460ff166109f857600080fd5b6001805460ff60a01b191690556040517fa45f47fdea8a1efdd9029a5691c7f759c32b7c698632b563573e155625d1693390600090a1565b600254901c90565b600154600160a01b900460ff1615610a4f57600080fd5b6001546001600160a01b03163314610a6657600080fd5b8351855114610abc576040805162461bcd60e51b815260206004820152601b60248201527f696e636f6e73697374656e7420616d6f756e74206f6620626574730000000000604482015290519081900360640190fd5b8251855114610b12576040805162461bcd60e51b815260206004820152601b60248201527f696e636f6e73697374656e7420616d6f756e74206f6620626574730000000000604482015290519081900360640190fd5b600754604080516365afb44f60e01b81526004810185905290516001600160a01b03909216916365afb44f916024808201926020929091908290030181600087803b158015610b6057600080fd5b505af1158015610b74573d6000803e3d6000fd5b505050506040513d6020811015610b8a57600080fd5b50600090505b855181101561102b57838181518110610ba557fe5b6020026020010151600760009054906101000a90046001600160a01b03166001600160a01b031663cb3006c38b8481518110610bdd57fe5b6020026020010151856040518363ffffffff1660e01b815260040180836001600160a01b03166001600160a01b0316815260200180602001828103825283818151815260200191508051906020019080838360005b83811015610c4a578181015183820152602001610c32565b50505050905090810190601f168015610c775780820380516001836020036101000a031916815260200191505b50935050505060206040518083038186803b158015610c9557600080fd5b505afa158015610ca9573d6000803e3d6000fd5b505050506040513d6020811015610cbf57600080fd5b50511015610d14576040805162461bcd60e51b815260206004820152601b60248201527f617070726f7665207472656173757279206173207370656e6465720000000000604482015290519081900360640190fd5b838181518110610d2057fe5b6020908102919091018101516007546040516380221e6160e01b81526004810184815286516024830152865193946001600160a01b03909316936380221e61938893839260449091019185019080838360005b83811015610d8b578181015183820152602001610d73565b50505050905090810190601f168015610db85780820380516001836020036101000a031916815260200191505b509250505060206040518083038186803b158015610dd557600080fd5b505afa158015610de9573d6000803e3d6000fd5b505050506040513d6020811015610dff57600080fd5b50511015610e54576040805162461bcd60e51b815260206004820152601f60248201527f62657420616d6f756e74206973206d6f7265207468616e206d6178696d756d00604482015290519081900360640190fd5b60075489516001600160a01b039091169063f628ca579084908c9085908110610e7957fe5b6020026020010151878581518110610e8d57fe5b60200260200101516040518463ffffffff1660e01b81526004018080602001846001600160a01b03166001600160a01b03168152602001838152602001828103825285818151815260200191508051906020019080838360005b83811015610eff578181015183820152602001610ee7565b50505050905090810190601f168015610f2c5780820380516001836020036101000a031916815260200191505b50945050505050602060405180830381600087803b158015610f4d57600080fd5b505af1158015610f61573d6000803e3d6000fd5b505050506040513d6020811015610f7757600080fd5b5051610fca576040805162461bcd60e51b815260206004820152601760248201527f696e626f756e64207472616e73666572206661696c6564000000000000000000604482015290519081900360640190fd5b611023868281518110610fd957fe5b60200260200101518a8381518110610fed57fe5b602002602001015187848151811061100157fe5b602002602001015187858151811061101557fe5b6020026020010151866116e4565b600101610b90565b5060075460405163823149c760e01b81526020600482018181528451602484015284516001600160a01b039094169363823149c793869383926044909201919085019080838360005b8381101561108c578181015183820152602001611074565b50505050905090810190601f1680156110b95780820380516001836020036101000a031916815260200191505b509250505060206040518083038186803b1580156110d657600080fd5b505afa1580156110ea573d6000803e3d6000fd5b505050506040513d602081101561110057600080fd5b505161110a6114f5565b111561115d576040805162461bcd60e51b815260206004820152601c60248201527f6e6f7420656e6f75676820746f6b656e7320666f72207061796f757400000000604482015290519081900360640190fd5b600460009055600061117183888a856118ca565b81519092508290611189906005906020850190611cb4565b5060009150505b6005548110156112ec576000600582815481106111a957fe5b906000526020600020015411156112e4576007548a516001600160a01b039091169063abbcb3789085908d90859081106111df57fe5b6020026020010151600585815481106111f457fe5b90600052602060002001546040518463ffffffff1660e01b81526004018080602001846001600160a01b03166001600160a01b03168152602001838152602001828103825285818151815260200191508051906020019080838360005b83811015611269578181015183820152602001611251565b50505050905090810190601f1680156112965780820380516001836020036101000a031916815260200191505b50945050505050602060405180830381600087803b1580156112b757600080fd5b505af11580156112cb573d6000803e3d6000fd5b505050506040513d60208110156112e157600080fd5b50505b600101611190565b508681836040518082805190602001908083835b6020831061131f5780518252601f199092019160209182019101611300565b6001836020036101000a03801982511681845116808217855250505050505090500191505060405180910390207f94e8c99f4e93fd721dc35a0d406d22565a75dd81925838f39546b5c44de03fe28c8c6005604051808060200184815260200180602001838103835286818151815260200191508051906020019060200280838360005b838110156113bb5781810151838201526020016113a3565b5050505090500183810382528481815481526020019150805480156113ff57602002820191906000526020600020905b8154815260200190600101908083116113eb575b50509550505050505060405180910390a4505050505050505050565b600154606090600090600160a01b900460ff161561143857600080fd5b6000546001600160a01b0316331461144f57600080fd5b61149187878787878080601f0160208091040260200160405190810160405280939291908181526020018383808284376000920191909152506118ca92505050565b915091509550959350505050565b600154600160a01b900460ff1681565b60045481565b6000546001600160a01b031633146114cc57600080fd5b6002805460c09590951b90941760d09390931b9290921760e09190911b1760f09190911b179055565b600061151660c0600254901c61ffff16600454611bd490919063ffffffff16565b90505b90565b6000546001600160a01b0316331461153357600080fd5b600154600160a01b900460ff161561154a57600080fd5b6001805460ff60a01b1916600160a01b1790556040517f9e87fac88ff661f02d44f95383c817fece4bce600a3dab7a54406878b965e75290600090a1565b6000546001600160a01b0316331461159f57600080fd5b600355565b6000546001600160a01b031633146115bb57600080fd5b600780546001600160a01b0319166001600160a01b0392909216919091179055565b6000546001600160a01b031633146115f457600080fd5b6001600160a01b03811661160757600080fd5b600180546001600160a01b0319166001600160a01b03838116919091179182905560408051929091168252517f54841e992da2f7bcaa3127409f02e1849c79072740593c398d6670f65f995fa7916020908290030190a150565b6007546001600160a01b031633146115bb576040805162461bcd60e51b815260206004820152601860248201527f6d7573742062652063757272656e742074726561737572790000000000000000604482015290519081900360640190fd5b6001546001600160a01b031681565b6007546001600160a01b031690565b60065490565b6001600160a01b038416611732576040805162461bcd60e51b815260206004820152601060248201526f1c1b185e595c881d5b9919599a5b995960821b604482015290519081900360640190fd5b8415611775576040805162461bcd60e51b815260206004820152600d60248201526c18995d081d5b9919599a5b9959609a1b604482015290519081900360640190fd5b600454611788908363ffffffff611c3616565b600481905560035410156117e3576040805162461bcd60e51b815260206004820152601960248201527f746f74616c2062657420657863656564696e67206c696d697400000000000000604482015290519081900360640190fd5b6117eb611cff565b600081819052506001600160a01b0385166020820152604081018490526060810183905260808101829052600680546001818101808455600093909352835160049092027ff652222313e28459528d920b65115c16c04f3efc82aaedc97be59f3f377c0d3f01805485939192839160ff19169083801561186757fe5b021790555060208281015182546001600160a01b0390911661010002610100600160a81b03199091161782556040830151600183015560608301516002830155608083015180516118be9260038501920190611d38565b50505050505050505050565b606060006103e86118da87611c90565b816118e157fe5b0690506000816118f2600583611da5565b6118fa611dc6565b506040805161014081018252600480825260208201819052918101829052606081019190915260036080820181905260a0820181905260c0820152600260e082018190526101008201526001610120820152600081600a8406600a811061195d57fe5b602002015160ff16905060005b60028110156119a757600a840493508183600a8606600a811061198957fe5b602002015160ff161461199f57600091506119a7565b60010161196a565b506119b0611de5565b506040805160a08101825260ff815260c0602082015260d09181019190915260e0606082015260f0608082015260005b600654811015611a7657611a378284600581106119f957fe5b602002015160ff16600254901c61ffff1660068381548110611a1757fe5b906000526020600020906004020160020154611bd490919063ffffffff16565b60058054600181810183556000929092527f036b6384b5eca791c62761152d0c79bb0604c104a5fb6f4eb0703f3154bb3db001829055909650016119e0565b50611a8360066000611e03565b89897fe2af3fe7d6558e47268074c08af957fa09a37005cf16d7a1722c6546457496278a896005604051808060200184815260200180602001838103835286818151815260200191508051906020019080838360005b83811015611af1578181015183820152602001611ad9565b50505050905090810190601f168015611b1e5780820380516001836020036101000a031916815260200191505b508381038252848181548152602001915080548015611b5c57602002820191906000526020600020905b815481526020019060010190808311611b48575b50509550505050505060405180910390a360058681805480602002602001604051908101604052809291908181526020018280548015611bbb57602002820191906000526020600020905b815481526020019060010190808311611ba7575b5050505050915096509650505050505094509492505050565b600082611be357506000611c30565b82820282848281611bf057fe5b0414611c2d5760405162461bcd60e51b8152600401808060200182810382526021815260200180611ec56021913960400191505060405180910390fd5b90505b92915050565b600082820183811015611c2d576040805162461bcd60e51b815260206004820152601b60248201527f536166654d6174683a206164646974696f6e206f766572666c6f770000000000604482015290519081900360640190fd5b60408051602080820193909352815180820384018152908201909152805191012090565b828054828255906000526020600020908101928215611cef579160200282015b82811115611cef578251825591602001919060010190611cd4565b50611cfb929150611e24565b5090565b6040805160a08101909152806000815260200160006001600160a01b031681526020016000815260200160008152602001606081525090565b828054600181600116156101000203166002900490600052602060002090601f016020900481019282601f10611d7957805160ff1916838001178555611cef565b82800160010185558215611cef5791820182811115611cef578251825591602001919060010190611cd4565b5080546000825590600052602060002090810190611dc39190611e24565b50565b604051806101400160405280600a906020820280388339509192915050565b6040518060a001604052806005906020820280388339509192915050565b5080546000825560040290600052602060002090810190611dc39190611e3e565b61151991905b80821115611cfb5760008155600101611e2a565b61151991905b80821115611cfb5780546001600160a81b031916815560006001820181905560028201819055611e776003830182611e80565b50600401611e44565b50805460018160011615610100020316600290046000825580601f10611ea65750611dc3565b601f016020900490600052602060002090810190611dc39190611e2456fe536166654d6174683a206d756c7469706c69636174696f6e206f766572666c6f77a265627a7a723158200d8cb88e029c0bd4abedad8010108bd9354ff97127596a4079a05ff2e6ad9e6264736f6c63430005100032",
  "source": "pragma solidity ^0.5.14;\r\n\r\n// Slot Machine Logic Contract ///////////////////////////////////////////////////////////\r\n// Author: Decentral Games (hello@decentral.games) ///////////////////////////////////////\r\n\r\nimport \"../common-contracts/SafeMath.sol\";\r\nimport \"../common-contracts/AccessControl.sol\";\r\nimport \"../common-contracts/TreasuryInstance.sol\";\r\n\r\ncontract TreasurySlots is AccessControl {\r\n    using SafeMath for uint;\r\n\r\n    uint256 store;\r\n    uint256 public maxBet;\r\n    uint256 public betSize;\r\n    uint256[] winAmounts;\r\n\r\n    enum BetType { Single }\r\n\r\n    struct Bet {\r\n        BetType betType;\r\n        address player;\r\n        uint256 number;\r\n        uint256 value;\r\n        string tokenName;\r\n    }\r\n\r\n    Bet[] public bets;\r\n\r\n    event SpinResult(\r\n        string _tokenName,\r\n        uint256 indexed _landID,\r\n        uint256 _number,\r\n        uint256 indexed _machineID,\r\n        uint256[] _winAmounts\r\n    );\r\n\r\n    event GameResult(\r\n        address[] _players,\r\n        string indexed _tokenName,\r\n        uint256 _landID,\r\n        uint256 indexed _number,\r\n        uint256 indexed _machineID,\r\n        uint256[] _winAmounts\r\n    );\r\n\r\n    modifier onlyTreasury() {\r\n        require(\r\n            msg.sender == address(treasury),\r\n            'must be current treasury'\r\n        );\r\n        _;\r\n    }\r\n\r\n    TreasuryInstance treasury;\r\n\r\n    constructor(\r\n        address _treasury,\r\n        uint256 factor1, // 250\r\n        uint256 factor2, // 15\r\n        uint256 factor3, // 8\r\n        uint256 factor4, // 4\r\n        uint256 _maxBet  // ?\r\n    ) public {\r\n        treasury = TreasuryInstance(_treasury);\r\n        store |= factor1<<192;\r\n        store |= factor2<<208;\r\n        store |= factor3<<224;\r\n        store |= factor4<<240;\r\n        maxBet = _maxBet;\r\n    }\r\n\r\n    function bet(\r\n        uint256 _betType,\r\n        address _player,\r\n        uint256 _number,\r\n        uint256 _value,\r\n        string memory _tokenName\r\n    ) internal {\r\n\r\n        require(_player != address(0x0), \"player undefined\");\r\n        require(_betType == uint(BetType.Single), 'bet undefined');\r\n\r\n        betSize = betSize.add(_value);\r\n\r\n        require (\r\n            betSize <= maxBet,\r\n            \"total bet exceeding limit\"\r\n        );\r\n\r\n        Bet memory newBet;\r\n        newBet.betType = BetType.Single;\r\n        newBet.player = _player;\r\n        newBet.number = _number;\r\n        newBet.value = _value;\r\n        newBet.tokenName = _tokenName;\r\n        bets.push(newBet);\r\n    }\r\n\r\n    function createBet(\r\n        uint _betType,\r\n        address _player,\r\n        uint _number,\r\n        uint _value,\r\n        string calldata _tokenName\r\n    ) external whenNotPaused onlyCEO {\r\n        bet(\r\n            _betType,\r\n            _player,\r\n            _number,\r\n            _value,\r\n            _tokenName\r\n        );\r\n    }\r\n\r\n    function play(\r\n        address[] memory _players,\r\n        uint256 _landID,\r\n        uint256 _machineID,\r\n        uint256[] memory _betIDs,\r\n        uint256[] memory _betValues,\r\n        uint256[] memory _betAmount,\r\n        bytes32 _localhash,\r\n        string memory _tokenName\r\n    ) public whenNotPaused onlyWorker {\r\n\r\n        require(\r\n            _betIDs.length == _betValues.length,\r\n            'inconsistent amount of bets'\r\n        );\r\n        require(\r\n            _betIDs.length == _betAmount.length,\r\n            'inconsistent amount of bets'\r\n        );\r\n\r\n        treasury.consumeHash(_localhash);\r\n\r\n        // set bets for the game\r\n        for (uint256 i = 0; i < _betIDs.length; i++) {\r\n\r\n            require(\r\n                treasury.checkApproval(_players[i], _tokenName) >= _betAmount[i],\r\n                'approve treasury as spender'\r\n            );\r\n\r\n            require(\r\n                treasury.getMaximumBet(_tokenName) >= _betAmount[i],\r\n                'bet amount is more than maximum'\r\n            );\r\n\r\n            require(\r\n                treasury.tokenInboundTransfer(_tokenName, _players[i], _betAmount[i]),\r\n                'inbound transfer failed'\r\n            );\r\n\r\n            bet(\r\n                _betIDs[i],\r\n                _players[i],\r\n                _betValues[i],\r\n                _betAmount[i],\r\n                _tokenName\r\n            );\r\n\r\n        }\r\n\r\n        require(\r\n            getNecessaryBalance() <= treasury.checkAllocatedTokens(_tokenName),\r\n            \"not enough tokens for payout\"\r\n        );\r\n\r\n        delete betSize;\r\n\r\n        uint256 number;\r\n        (winAmounts, number) = _launch(\r\n            _localhash,\r\n            _machineID,\r\n            _landID,\r\n            _tokenName\r\n        );\r\n\r\n        for (uint256 i = 0; i < winAmounts.length; i++) {\r\n            if (winAmounts[i] > 0) {\r\n                treasury.tokenOutboundTransfer(_tokenName, _players[i], winAmounts[i]);\r\n            }\r\n        }\r\n\r\n        emit GameResult(\r\n            _players,\r\n            _tokenName,\r\n            _landID,\r\n            number,\r\n            _machineID,\r\n            winAmounts\r\n        );\r\n    }\r\n\r\n    function launch(\r\n        bytes32 _localhash,\r\n        uint256 _machineID,\r\n        uint256 _landID,\r\n        string calldata _tokenName\r\n    ) external whenNotPaused onlyCEO returns(uint256[] memory, uint256 number) {\r\n        return _launch(\r\n            _localhash,\r\n            _machineID,\r\n            _landID,\r\n            _tokenName\r\n        );\r\n    }\r\n\r\n    function _launch(\r\n        bytes32 _localhash,\r\n        uint256 _machineID,\r\n        uint256 _landID,\r\n        string memory _tokenName\r\n    ) internal returns (uint256[] memory, uint256 numbers) {\r\n\r\n        numbers = randomNumber(_localhash) % 1000;\r\n\r\n        uint256 winAmount;\r\n        uint256 number = numbers;\r\n        delete winAmounts;\r\n\r\n        uint8[10] memory symbols = [4, 4, 4, 4, 3, 3, 3, 2, 2, 1];\r\n        uint256 winner = symbols[number % 10];\r\n\r\n        for (uint256 i = 0; i < 2; i++) {\r\n            number = uint256(number) / 10; // shift\r\n            if (symbols[number % 10] != winner) {\r\n                winner = 0;\r\n                break;\r\n            }\r\n        }\r\n\r\n        uint8[5] memory positions = [255, 192, 208, 224, 240];\r\n        for (uint256 i = 0; i < bets.length; i++) {\r\n            winAmount = bets[i].value.mul(\r\n                uint16(store>>positions[winner])\r\n            );\r\n            winAmounts.push(winAmount);\r\n        }\r\n\r\n        delete bets;\r\n\r\n        emit SpinResult(_tokenName, _landID, numbers, _machineID, winAmounts);\r\n        return (winAmounts, numbers);\r\n    }\r\n\r\n    function updateFactors(\r\n        uint256 _factor1,\r\n        uint256 _factor2,\r\n        uint256 _factor3,\r\n        uint256 _factor4\r\n    ) external onlyCEO {\r\n        store |= _factor1<<192;\r\n        store |= _factor2<<208;\r\n        store |= _factor3<<224;\r\n        store |= _factor4<<240;\r\n    }\r\n\r\n    function updateMaxBet(uint256 _newMaxBet) external onlyCEO {\r\n        maxBet = _newMaxBet;\r\n    }\r\n\r\n    function getPayoutFactor(uint256 _position) external view returns (uint16) {\r\n       return uint16(store>>_position);\r\n    }\r\n\r\n    function getTreasuryAddress() external view returns (address) {\r\n        return address(treasury);\r\n    }\r\n\r\n    function randomNumber(bytes32 _localhash) private pure returns (uint256 numbers) {\r\n        return uint256(keccak256(abi.encodePacked(_localhash)));\r\n    }\r\n\r\n    function getNecessaryBalance() public view returns (uint256) {\r\n        return betSize.mul(\r\n            uint16(store>>192)\r\n        );\r\n    }\r\n\r\n    function getAmountBets() external view returns (uint256) {\r\n        return bets.length;\r\n    }\r\n\r\n    function changeTreasury(address _newTreasuryAddress) external onlyCEO {\r\n        treasury = TreasuryInstance(_newTreasuryAddress);\r\n    }\r\n\r\n    function _changeTreasury(address _newTreasuryAddress) external onlyTreasury {\r\n        treasury = TreasuryInstance(_newTreasuryAddress);\r\n    }\r\n}\r\n",
  "sourcePath": "/Users/vitallymarinchenko/Development/contracts/contracts/treasury-example/TreasurySlots.sol",
  "compiler": {
    "name": "solc",
    "version": "0.5.16+commit.9c3226ce.Emscripten.clang"
  },
  "schemaVersion": "3.0.23",
  "updatedAt": "2020-05-22T10:07:29.267Z",
  "networkType": "ethereum",
  "devdoc": {
    "methods": {}
  },
  "userdoc": {
    "methods": {}
  }
}