{
  "contractName": "TreasuryRoulette",
  "abi": [
    {
      "inputs": [
        {
          "internalType": "address",
          "name": "_treasuryAddress",
          "type": "address"
        },
        {
          "internalType": "uint256",
          "name": "_maxSquareBet",
          "type": "uint256"
        }
      ],
      "payable": false,
      "stateMutability": "nonpayable",
      "type": "constructor"
    },
    {
      "anonymous": false,
      "inputs": [
        {
          "indexed": false,
          "internalType": "address",
          "name": "newCEO",
          "type": "address"
        }
      ],
      "name": "CEOSet",
      "type": "event"
    },
    {
      "anonymous": false,
      "inputs": [
        {
          "indexed": false,
          "internalType": "address[]",
          "name": "_players",
          "type": "address[]"
        },
        {
          "indexed": true,
          "internalType": "string",
          "name": "_tokenName",
          "type": "string"
        },
        {
          "indexed": false,
          "internalType": "uint256",
          "name": "_landID",
          "type": "uint256"
        },
        {
          "indexed": true,
          "internalType": "uint256",
          "name": "_number",
          "type": "uint256"
        },
        {
          "indexed": true,
          "internalType": "uint256",
          "name": "_machineID",
          "type": "uint256"
        },
        {
          "indexed": false,
          "internalType": "uint256[]",
          "name": "_winAmounts",
          "type": "uint256[]"
        }
      ],
      "name": "GameResult",
      "type": "event"
    },
    {
      "anonymous": false,
      "inputs": [],
      "name": "Paused",
      "type": "event"
    },
    {
      "anonymous": false,
      "inputs": [],
      "name": "Unpaused",
      "type": "event"
    },
    {
      "anonymous": false,
      "inputs": [
        {
          "indexed": false,
          "internalType": "address",
          "name": "newWorker",
          "type": "address"
        }
      ],
      "name": "WorkerSet",
      "type": "event"
    },
    {
      "constant": true,
      "inputs": [
        {
          "internalType": "uint256",
          "name": "",
          "type": "uint256"
        }
      ],
      "name": "bets",
      "outputs": [
        {
          "internalType": "enum TreasuryRoulette.BetType",
          "name": "betType",
          "type": "uint8"
        },
        {
          "internalType": "address",
          "name": "player",
          "type": "address"
        },
        {
          "internalType": "uint256",
          "name": "number",
          "type": "uint256"
        },
        {
          "internalType": "uint256",
          "name": "value",
          "type": "uint256"
        }
      ],
      "payable": false,
      "stateMutability": "view",
      "type": "function"
    },
    {
      "constant": true,
      "inputs": [],
      "name": "ceoAddress",
      "outputs": [
        {
          "internalType": "address",
          "name": "",
          "type": "address"
        }
      ],
      "payable": false,
      "stateMutability": "view",
      "type": "function"
    },
    {
      "constant": true,
      "inputs": [
        {
          "internalType": "uint256",
          "name": "",
          "type": "uint256"
        },
        {
          "internalType": "uint256",
          "name": "",
          "type": "uint256"
        }
      ],
      "name": "currentBets",
      "outputs": [
        {
          "internalType": "uint256",
          "name": "",
          "type": "uint256"
        }
      ],
      "payable": false,
      "stateMutability": "view",
      "type": "function"
    },
    {
      "constant": true,
      "inputs": [],
      "name": "maxSquareBet",
      "outputs": [
        {
          "internalType": "uint256",
          "name": "",
          "type": "uint256"
        }
      ],
      "payable": false,
      "stateMutability": "view",
      "type": "function"
    },
    {
      "constant": true,
      "inputs": [],
      "name": "maximumNumberBets",
      "outputs": [
        {
          "internalType": "uint256",
          "name": "",
          "type": "uint256"
        }
      ],
      "payable": false,
      "stateMutability": "view",
      "type": "function"
    },
    {
      "constant": true,
      "inputs": [],
      "name": "nextRoundTimestamp",
      "outputs": [
        {
          "internalType": "uint256",
          "name": "",
          "type": "uint256"
        }
      ],
      "payable": false,
      "stateMutability": "view",
      "type": "function"
    },
    {
      "constant": false,
      "inputs": [],
      "name": "pause",
      "outputs": [],
      "payable": false,
      "stateMutability": "nonpayable",
      "type": "function"
    },
    {
      "constant": true,
      "inputs": [],
      "name": "paused",
      "outputs": [
        {
          "internalType": "bool",
          "name": "",
          "type": "bool"
        }
      ],
      "payable": false,
      "stateMutability": "view",
      "type": "function"
    },
    {
      "constant": false,
      "inputs": [
        {
          "internalType": "address",
          "name": "_newCEO",
          "type": "address"
        }
      ],
      "name": "setCEO",
      "outputs": [],
      "payable": false,
      "stateMutability": "nonpayable",
      "type": "function"
    },
    {
      "constant": false,
      "inputs": [
        {
          "internalType": "address",
          "name": "_newWorker",
          "type": "address"
        }
      ],
      "name": "setWorker",
      "outputs": [],
      "payable": false,
      "stateMutability": "nonpayable",
      "type": "function"
    },
    {
      "constant": true,
      "inputs": [],
      "name": "treasury",
      "outputs": [
        {
          "internalType": "contract TreasuryInstance",
          "name": "",
          "type": "address"
        }
      ],
      "payable": false,
      "stateMutability": "view",
      "type": "function"
    },
    {
      "constant": false,
      "inputs": [],
      "name": "unpause",
      "outputs": [],
      "payable": false,
      "stateMutability": "nonpayable",
      "type": "function"
    },
    {
      "constant": true,
      "inputs": [],
      "name": "workerAddress",
      "outputs": [
        {
          "internalType": "address",
          "name": "",
          "type": "address"
        }
      ],
      "payable": false,
      "stateMutability": "view",
      "type": "function"
    },
    {
      "constant": true,
      "inputs": [],
      "name": "getNextRoundTimestamp",
      "outputs": [
        {
          "internalType": "uint256",
          "name": "",
          "type": "uint256"
        }
      ],
      "payable": false,
      "stateMutability": "view",
      "type": "function"
    },
    {
      "constant": false,
      "inputs": [
        {
          "internalType": "uint256",
          "name": "_betType",
          "type": "uint256"
        },
        {
          "internalType": "address",
          "name": "_player",
          "type": "address"
        },
        {
          "internalType": "uint256",
          "name": "_number",
          "type": "uint256"
        },
        {
          "internalType": "uint256",
          "name": "_value",
          "type": "uint256"
        }
      ],
      "name": "createBet",
      "outputs": [],
      "payable": false,
      "stateMutability": "nonpayable",
      "type": "function"
    },
    {
      "constant": false,
      "inputs": [
        {
          "internalType": "bytes32",
          "name": "_localhash",
          "type": "bytes32"
        }
      ],
      "name": "launch",
      "outputs": [
        {
          "internalType": "uint256[]",
          "name": "",
          "type": "uint256[]"
        },
        {
          "internalType": "uint256",
          "name": "number",
          "type": "uint256"
        }
      ],
      "payable": false,
      "stateMutability": "nonpayable",
      "type": "function"
    },
    {
      "constant": false,
      "inputs": [
        {
          "internalType": "address[]",
          "name": "_players",
          "type": "address[]"
        },
        {
          "internalType": "uint256",
          "name": "_landID",
          "type": "uint256"
        },
        {
          "internalType": "uint256",
          "name": "_machineID",
          "type": "uint256"
        },
        {
          "internalType": "uint256[]",
          "name": "_betIDs",
          "type": "uint256[]"
        },
        {
          "internalType": "uint256[]",
          "name": "_betValues",
          "type": "uint256[]"
        },
        {
          "internalType": "uint256[]",
          "name": "_betAmount",
          "type": "uint256[]"
        },
        {
          "internalType": "bytes32",
          "name": "_localhash",
          "type": "bytes32"
        },
        {
          "internalType": "string",
          "name": "_tokenName",
          "type": "string"
        }
      ],
      "name": "play",
      "outputs": [],
      "payable": false,
      "stateMutability": "nonpayable",
      "type": "function"
    },
    {
      "constant": true,
      "inputs": [
        {
          "internalType": "enum TreasuryRoulette.BetType",
          "name": "_betType",
          "type": "uint8"
        }
      ],
      "name": "getPayoutForType",
      "outputs": [
        {
          "internalType": "uint256",
          "name": "",
          "type": "uint256"
        }
      ],
      "payable": false,
      "stateMutability": "pure",
      "type": "function"
    },
    {
      "constant": true,
      "inputs": [],
      "name": "getNecessaryBalance",
      "outputs": [
        {
          "internalType": "uint256",
          "name": "_necessaryBalance",
          "type": "uint256"
        }
      ],
      "payable": false,
      "stateMutability": "view",
      "type": "function"
    },
    {
      "constant": true,
      "inputs": [],
      "name": "getBetsCountAndValue",
      "outputs": [
        {
          "internalType": "uint256",
          "name": "",
          "type": "uint256"
        },
        {
          "internalType": "uint256",
          "name": "",
          "type": "uint256"
        }
      ],
      "payable": false,
      "stateMutability": "view",
      "type": "function"
    },
    {
      "constant": true,
      "inputs": [],
      "name": "getBetsCount",
      "outputs": [
        {
          "internalType": "uint256",
          "name": "",
          "type": "uint256"
        }
      ],
      "payable": false,
      "stateMutability": "view",
      "type": "function"
    },
    {
      "constant": false,
      "inputs": [
        {
          "internalType": "uint256",
          "name": "_newMaxSquareBet",
          "type": "uint256"
        }
      ],
      "name": "changeMaxSquareBet",
      "outputs": [],
      "payable": false,
      "stateMutability": "nonpayable",
      "type": "function"
    },
    {
      "constant": false,
      "inputs": [
        {
          "internalType": "address",
          "name": "_newTreasuryAddress",
          "type": "address"
        }
      ],
      "name": "changeTreasury",
      "outputs": [],
      "payable": false,
      "stateMutability": "nonpayable",
      "type": "function"
    },
    {
      "constant": false,
      "inputs": [
        {
          "internalType": "address",
          "name": "_newTreasuryAddress",
          "type": "address"
        }
      ],
      "name": "_changeTreasury",
      "outputs": [],
      "payable": false,
      "stateMutability": "nonpayable",
      "type": "function"
    }
  ],
  "bytecode": "0x60806040526001805460ff60a01b19169055602460035534801561002257600080fd5b5060405161249a38038061249a8339818101604052604081101561004557600080fd5b50805160209182015160008054336001600160a01b031991821681179283905560018054909216179055604080516001600160a01b03909216825251929391927ff97cbb4246b709036319093e5ff31674b9f6759076d153e1bea1f60392170fc0929181900390910190a1600680546001600160a01b0319166001600160a01b039390931692909217909155600255426004556123b3806100e76000396000f3fe608060405234801561001057600080fd5b50600436106101585760003560e01c80638456cb59116100c3578063c26f6d441161007c578063c26f6d44146105f3578063c327767114610619578063c433ec6f1461063f578063cbd88f48146106b7578063e0ae04d9146106bf578063ef37cfe9146106c757610158565b80638456cb59146105905780638c7e347a14610598578063a63b7f03146105a0578063b14f2a39146105bd578063b633b2ab146105e3578063bae64616146105eb57610158565b80634bb0948d116101155780634bb0948d146102635780634f2ee50d1461026b5780635c975abb1461052c5780635f8686a11461054857806361d027b31461058057806373d32adf1461058857610158565b80630a0f81681461015d57806322af00fa1461018157806326eafae9146101de57806327d7874c1461021057806329b7c217146102385780633f4ba83a1461025b575b600080fd5b6101656106e8565b604080516001600160a01b039092168252519081900360200190f35b61019e6004803603602081101561019757600080fd5b50356106f7565b604051808560058111156101ae57fe5b60ff1681526001600160a01b03909416602085015250604080840192909252606083015251908190036080019150f35b6101fe600480360360208110156101f457600080fd5b503560ff1661073b565b60408051918252519081900360200190f35b6102366004803603602081101561022657600080fd5b50356001600160a01b03166107e5565b005b6101fe6004803603604081101561024e57600080fd5b5080359060200135610869565b610236610886565b6101fe6108eb565b610236600480360361010081101561028257600080fd5b810190602081018135600160201b81111561029c57600080fd5b8201836020820111156102ae57600080fd5b803590602001918460208302840111600160201b831117156102cf57600080fd5b9190808060200260200160405190810160405280939291908181526020018383602002808284376000920191909152509295843595602086013595919450925060608101915060400135600160201b81111561032a57600080fd5b82018360208201111561033c57600080fd5b803590602001918460208302840111600160201b8311171561035d57600080fd5b9190808060200260200160405190810160405280939291908181526020018383602002808284376000920191909152509295949360208101935035915050600160201b8111156103ac57600080fd5b8201836020820111156103be57600080fd5b803590602001918460208302840111600160201b831117156103df57600080fd5b9190808060200260200160405190810160405280939291908181526020018383602002808284376000920191909152509295949360208101935035915050600160201b81111561042e57600080fd5b82018360208201111561044057600080fd5b803590602001918460208302840111600160201b8311171561046157600080fd5b91908080602002602001604051908101604052809392919081815260200183836020028082843760009201919091525092958435959094909350604081019250602001359050600160201b8111156104b857600080fd5b8201836020820111156104ca57600080fd5b803590602001918460018302840111600160201b831117156104eb57600080fd5b91908080601f0160208091040260200160405190810160405280939291908181526020018383808284376000920191909152509295506108f1945050505050565b610534611322565b604080519115158252519081900360200190f35b6102366004803603608081101561055e57600080fd5b508035906001600160a01b036020820135169060408101359060600135611332565b610165611372565b6101fe611381565b610236611508565b6101fe611574565b610236600480360360208110156105b657600080fd5b503561157b565b610236600480360360208110156105d357600080fd5b50356001600160a01b0316611597565b6101fe6115d0565b6101fe6115d6565b6102366004803603602081101561060957600080fd5b50356001600160a01b03166115dc565b6102366004803603602081101561062f57600080fd5b50356001600160a01b0316611660565b61065c6004803603602081101561065557600080fd5b50356116bf565b6040518080602001838152602001828103825284818151815260200191508051906020019060200280838360005b838110156106a257818101518382015260200161068a565b50505050905001935050505060405180910390f35b610165611705565b6101fe611714565b6106cf61171a565b6040805192835260208301919091528051918290030190f35b6000546001600160a01b031681565b6008818154811061070457fe5b600091825260209091206003909102018054600182015460029092015460ff821693506101009091046001600160a01b0316919084565b60008082600581111561074a57fe5b1415610758575060246107e0565b600182600581111561076657fe5b1415610774575060026107e0565b600282600581111561078257fe5b1415610790575060026107e0565b600382600581111561079e57fe5b14156107ac575060026107e0565b60048260058111156107ba57fe5b14156107c8575060036107e0565b60058260058111156107d657fe5b14156107e0575060035b919050565b6000546001600160a01b031633146107fc57600080fd5b6001600160a01b03811661080f57600080fd5b600080546001600160a01b0319166001600160a01b03838116919091179182905560408051929091168252517ff97cbb4246b709036319093e5ff31674b9f6759076d153e1bea1f60392170fc0916020908290030190a150565b600560209081526000928352604080842090915290825290205481565b6000546001600160a01b0316331461089d57600080fd5b600154600160a01b900460ff166108b357600080fd5b6001805460ff60a01b191690556040517fa45f47fdea8a1efdd9029a5691c7f759c32b7c698632b563573e155625d1693390600090a1565b60045481565b600154600160a01b900460ff161561090857600080fd5b6001546001600160a01b0316331461091f57600080fd5b8351855114610975576040805162461bcd60e51b815260206004820152601b60248201527f696e636f6e73697374656e7420616d6f756e74206f6620626574730000000000604482015290519081900360640190fd5b82518551146109cb576040805162461bcd60e51b815260206004820152601b60248201527f696e636f6e73697374656e7420616d6f756e74206f6620626574730000000000604482015290519081900360640190fd5b60035485511115610a23576040805162461bcd60e51b815260206004820152601e60248201527f6d6178696d756d20616d6f756e74206f66206265747320726561636865640000604482015290519081900360640190fd5b600654604080516365afb44f60e01b81526004810185905290516001600160a01b03909216916365afb44f916024808201926020929091908290030181600087803b158015610a7157600080fd5b505af1158015610a85573d6000803e3d6000fd5b505050506040513d6020811015610a9b57600080fd5b50600090505b8551811015610f3b57838181518110610ab657fe5b6020026020010151600660009054906101000a90046001600160a01b03166001600160a01b031663cb3006c38b8481518110610aee57fe5b6020026020010151856040518363ffffffff1660e01b815260040180836001600160a01b03166001600160a01b0316815260200180602001828103825283818151815260200191508051906020019080838360005b83811015610b5b578181015183820152602001610b43565b50505050905090810190601f168015610b885780820380516001836020036101000a031916815260200191505b50935050505060206040518083038186803b158015610ba657600080fd5b505afa158015610bba573d6000803e3d6000fd5b505050506040513d6020811015610bd057600080fd5b50511015610c25576040805162461bcd60e51b815260206004820152601b60248201527f617070726f7665207472656173757279206173207370656e6465720000000000604482015290519081900360640190fd5b838181518110610c3157fe5b6020908102919091018101516006546040516380221e6160e01b81526004810184815286516024830152865193946001600160a01b03909316936380221e61938893839260449091019185019080838360005b83811015610c9c578181015183820152602001610c84565b50505050905090810190601f168015610cc95780820380516001836020036101000a031916815260200191505b509250505060206040518083038186803b158015610ce657600080fd5b505afa158015610cfa573d6000803e3d6000fd5b505050506040513d6020811015610d1057600080fd5b50511015610d65576040805162461bcd60e51b815260206004820152601f60248201527f62657420616d6f756e74206973206d6f7265207468616e206d6178696d756d00604482015290519081900360640190fd5b60065489516001600160a01b039091169063f628ca579084908c9085908110610d8a57fe5b6020026020010151878581518110610d9e57fe5b60200260200101516040518463ffffffff1660e01b81526004018080602001846001600160a01b03166001600160a01b03168152602001838152602001828103825285818151815260200191508051906020019080838360005b83811015610e10578181015183820152602001610df8565b50505050905090810190601f168015610e3d5780820380516001836020036101000a031916815260200191505b50945050505050602060405180830381600087803b158015610e5e57600080fd5b505af1158015610e72573d6000803e3d6000fd5b505050506040513d6020811015610e8857600080fd5b5051610edb576040805162461bcd60e51b815260206004820152601760248201527f696e626f756e64207472616e73666572206661696c6564000000000000000000604482015290519081900360640190fd5b610f33868281518110610eea57fe5b60200260200101518a8381518110610efe57fe5b6020026020010151878481518110610f1257fe5b6020026020010151878581518110610f2657fe5b6020026020010151611764565b600101610aa1565b5060065460405163823149c760e01b81526020600482018181528451602484015284516001600160a01b039094169363823149c793869383926044909201919085019080838360005b83811015610f9c578181015183820152602001610f84565b50505050905090810190601f168015610fc95780820380516001836020036101000a031916815260200191505b509250505060206040518083038186803b158015610fe657600080fd5b505afa158015610ffa573d6000803e3d6000fd5b505050506040513d602081101561101057600080fd5b505161101a611381565b111561106d576040805162461bcd60e51b815260206004820152601c60248201527f6e6f7420656e6f75676820746f6b656e7320666f72207061796f757400000000604482015290519081900360640190fd5b600061107883611854565b815190925082906110909060079060208501906121d2565b5060009150505b6007548110156111f3576000600782815481106110b057fe5b906000526020600020015411156111eb576006548a516001600160a01b039091169063abbcb3789085908d90859081106110e657fe5b6020026020010151600785815481106110fb57fe5b90600052602060002001546040518463ffffffff1660e01b81526004018080602001846001600160a01b03166001600160a01b03168152602001838152602001828103825285818151815260200191508051906020019080838360005b83811015611170578181015183820152602001611158565b50505050905090810190601f16801561119d5780820380516001836020036101000a031916815260200191505b50945050505050602060405180830381600087803b1580156111be57600080fd5b505af11580156111d2573d6000803e3d6000fd5b505050506040513d60208110156111e857600080fd5b50505b600101611097565b508681836040518082805190602001908083835b602083106112265780518252601f199092019160209182019101611207565b6001836020036101000a03801982511681845116808217855250505050505090500191505060405180910390207f94e8c99f4e93fd721dc35a0d406d22565a75dd81925838f39546b5c44de03fe28c8c6007604051808060200184815260200180602001838103835286818151815260200191508051906020019060200280838360005b838110156112c25781810151838201526020016112aa565b50505050905001838103825284818154815260200191508054801561130657602002820191906000526020600020905b8154815260200190600101908083116112f2575b50509550505050505060405180910390a4505050505050505050565b600154600160a01b900460ff1681565b600154600160a01b900460ff161561134957600080fd5b6000546001600160a01b0316331461136057600080fd5b61136c84848484611764565b50505050565b6006546001600160a01b031681565b600080600061138e61221d565b600091505b6008548210156114c6576113a561223b565b600883815481106113b257fe5b6000918252602090912060408051608081019091526003909202018054829060ff1660058111156113df57fe5b60058111156113ea57fe5b8152815461010090046001600160a01b0316602082015260018201546040820152600290910154606090910152805190915061146f906114299061073b565b600560008460000151600581111561143d57fe5b815260200190815260200160002060008460400151815260200190815260200160002054611e4390919063ffffffff16565b9350818160000151600581111561148257fe5b6006811061148c57fe5b60200201518411156114ba578382826000015160058111156114aa57fe5b600681106114b457fe5b60200201525b50600190910190611393565b600091505b6006821015611502576114f58183600681106114e357fe5b6020020151859063ffffffff611ea516565b93506001909101906114cb565b50505090565b6000546001600160a01b0316331461151f57600080fd5b600154600160a01b900460ff161561153657600080fd5b6001805460ff60a01b1916600160a01b1790556040517f9e87fac88ff661f02d44f95383c817fece4bce600a3dab7a54406878b965e75290600090a1565b6008545b90565b6000546001600160a01b0316331461159257600080fd5b600255565b6000546001600160a01b031633146115ae57600080fd5b600680546001600160a01b0319166001600160a01b0392909216919091179055565b60045490565b60025481565b6000546001600160a01b031633146115f357600080fd5b6001600160a01b03811661160657600080fd5b600180546001600160a01b0319166001600160a01b03838116919091179182905560408051929091168252517f54841e992da2f7bcaa3127409f02e1849c79072740593c398d6670f65f995fa7916020908290030190a150565b6006546001600160a01b031633146115ae576040805162461bcd60e51b815260206004820152601860248201527f6d7573742062652063757272656e742074726561737572790000000000000000604482015290519081900360640190fd5b600154606090600090600160a01b900460ff16156116dc57600080fd5b6000546001600160a01b031633146116f357600080fd5b6116fc83611854565b91509150915091565b6001546001600160a01b031681565b60035481565b60008080805b600854811015611758576008818154811061173757fe5b60009182526020909120600260039092020101549190910190600101611720565b50600854925090509091565b60008481526005602090815260408083208584529091529020805482019081905560025410156117db576040805162461bcd60e51b815260206004820152601b60248201527f657863656564696e67206d6178696d756d20626574206c696d69740000000000604482015290519081900360640190fd5b836117f0576117eb828483611eff565b61136c565b6001841415611804576117eb828483612008565b6002841415611818576117eb828483612067565b600384141561182c576117eb8284836120c7565b6004841415611840576117eb828483612126565b600584141561136c576117eb82848361217c565b60606000600454421161189e576040805162461bcd60e51b815260206004820152600d60248201526c195e1c1a5c9959081c9bdd5b99609a1b604482015290519081900360640190fd5b6008546118e3576040805162461bcd60e51b815260206004820152600e60248201526d6d7573742068617665206265747360901b604482015290519081900360640190fd5b60006118f060078261226d565b504260045544836118ff61223b565b60088054600019810190811061191157fe5b6000918252602090912060408051608081019091526003909202018054829060ff16600581111561193e57fe5b600581111561194957fe5b81526020016000820160019054906101000a90046001600160a01b03166001600160a01b03166001600160a01b031681526020016001820154815260200160028201548152505090506025428484846000015185602001518660400151604051602001808781526020018681526020018581526020018460058111156119cb57fe5b60ff1660f81b8152600101836001600160a01b03166001600160a01b031660601b815260140182815260200196505050505050506040516020818303038152906040528051906020012060001c81611a1f57fe5b06935060005b600854811015611dd3576000611a3961223b565b60088381548110611a4657fe5b6000918252602090912060408051608081019091526003909202018054829060ff166005811115611a7357fe5b6005811115611a7e57fe5b8152815461010090046001600160a01b03166020820152600182015460408201526002909101546060909101529050600081516005811115611abc57fe5b148015611acc5750868160400151145b15611ada5760019150611cfc565b600181516005811115611ae957fe5b1415611b1457600087118015611b055750604081015160028806145b15611b0f57600191505b611cfc565b600281516005811115611b2357fe5b148015611b3257506040810151155b15611b8057600087118015611b485750600a8711155b80611b60575060138710158015611b605750601c8711155b15611b7357600287066001149150611b0f565b6002875b06159150611cfc565b600281516005811115611b8f57fe5b148015611ba0575080604001516001145b15611bed57600087118015611bb65750600a8711155b80611bce575060138710158015611bce5750601c8711155b15611bdf5760028706159150611b0f565b600287066001149150611cfc565b600381516005811115611bfc57fe5b1415611c4d5760138710158015611c1557506040810151155b15611c1f57600191505b600087118015611c30575060128711155b8015611b055750806040015160011415611b0f5760019150611cfc565b600481516005811115611c5c57fe5b1415611ca1576040810151611c75576003870660011491505b806040015160011415611c8c576003870660021491505b806040015160021415611b0f57600387611b77565b600581516005811115611cb057fe5b1415611cfc576040810151611cc757600c87111591505b806040015160011415611ce857600c87118015611ce5575060188711155b91505b806040015160021415611cfc576018871191505b8115611d5e576000611d25611d14836000015161073b565b60608401519063ffffffff611e4316565b600780546001810182556000919091527fa66cc928b5edb82af9bd49922954155ab7b0942694bea4ce44661d9a8736c688015550611d91565b6007805460018101825560009182527fa66cc928b5edb82af9bd49922954155ab7b0942694bea4ce44661d9a8736c68801555b60006005600083600001516005811115611da757fe5b815260208082019290925260409081016000908120948201518152939091529091205550600101611a25565b506000611de1600882612296565b5060078481805480602002602001604051908101604052809291908181526020018280548015611e3057602002820191906000526020600020905b815481526020019060010190808311611e1c575b5050505050915094509450505050915091565b600082611e5257506000611e9f565b82820282848281611e5f57fe5b0414611e9c5760405162461bcd60e51b815260040180806020018281038252602181526020018061235e6021913960400191505060405180910390fd5b90505b92915050565b600082820183811015611e9c576040805162461bcd60e51b815260206004820152601b60248201527f536166654d6174683a206164646974696f6e206f766572666c6f770000000000604482015290519081900360640190fd5b6024831115611f55576040805162461bcd60e51b815260206004820152601860248201527f6d757374206265206265747765656e203020616e642033360000000000000000604482015290519081900360640190fd5b60408051608081019091526008908060005b81526001600160a01b038516602080830191909152604082018790526060909101849052825460018181018086556000958652929094208351600390920201805492949092839160ff1990911690836005811115611fc157fe5b0217905550602082015181546001600160a01b0390911661010002610100600160a81b03199091161781556040820151600182015560609091015160029091015550505050565b6001831115612051576040805162461bcd60e51b815260206004820152601060248201526f4576656e283029202d204f646428312960801b604482015290519081900360640190fd5b6040805160808101909152600890806001611f67565b60018311156120b1576040805162461bcd60e51b8152602060048201526011602482015270526564283029202d20426c61636b28312960781b604482015290519081900360640190fd5b6040805160808101909152600890806002611f67565b6001831115612110576040805162461bcd60e51b815260206004820152601060248201526f48696768283029202d204c6f7728312960801b604482015290519081900360640190fd5b6040805160808101909152600890806003611f67565b60028311156121665760405162461bcd60e51b815260040180806020018281038252602881526020018061230f6028913960400191505060405180910390fd5b6040805160808101909152600890806004611f67565b60028311156121bc5760405162461bcd60e51b81526004018080602001828103825260278152602001806123376027913960400191505060405180910390fd5b6040805160808101909152600890806005611f67565b82805482825590600052602060002090810192821561220d579160200282015b8281111561220d5782518255916020019190600101906121f2565b506122199291506122c2565b5090565b6040518060c001604052806006906020820280388339509192915050565b6040805160808101909152806000815260200160006001600160a01b0316815260200160008152602001600081525090565b815481835581811115612291576000838152602090206122919181019083016122c2565b505050565b8154818355818111156122915760030281600302836000526020600020918201910161229191906122dc565b61157891905b8082111561221957600081556001016122c8565b61157891905b808211156122195780546001600160a81b031916815560006001820181905560028201556003016122e256fe636f6c756d6e206d75737420626520696e20726567696f6e206265747765656e203020616e642032646f7a656e206d75737420626520696e20726567696f6e206265747765656e203020616e642032536166654d6174683a206d756c7469706c69636174696f6e206f766572666c6f77a265627a7a7231582076c1e2f5eb6486a1da385cf5b949adeb8e4360367039abeceb95d823dec9c0e664736f6c63430005100032",
  "source": "pragma solidity ^0.5.14;\r\n\r\n// Roulette Logic Contract ///////////////////////////////////////////////////////////\r\n// Author: Decentral Games (hello@decentral.games) ///////////////////////////////////////\r\n\r\nimport \"../common-contracts/SafeMath.sol\";\r\nimport \"../common-contracts/AccessControl.sol\";\r\nimport \"../common-contracts/TreasuryInstance.sol\";\r\n\r\ncontract TreasuryRoulette is AccessControl {\r\n\r\n    using SafeMath for uint;\r\n\r\n    uint256 public maxSquareBet;\r\n    uint256 public maximumNumberBets = 36;\r\n    uint256 public nextRoundTimestamp;\r\n\r\n    enum BetType { Single, EvenOdd, RedBlack, HighLow, Column, Dozen }\r\n    mapping (uint => mapping (uint => uint256)) public currentBets;\r\n\r\n    modifier onlyTreasury() {\r\n        require(\r\n            msg.sender == address(treasury),\r\n            'must be current treasury'\r\n        );\r\n        _;\r\n    }\r\n\r\n    TreasuryInstance public treasury;\r\n\r\n    constructor(address _treasuryAddress, uint256 _maxSquareBet) public {\r\n        treasury = TreasuryInstance(_treasuryAddress);\r\n        maxSquareBet = _maxSquareBet;\r\n        nextRoundTimestamp = now;\r\n    }\r\n\r\n    struct Bet {\r\n        BetType betType;\r\n        address player;\r\n        uint256 number;\r\n        uint256 value;\r\n        // string tokenName;\r\n    }\r\n\r\n    /* event SpinResult(\r\n        string _tokenName,\r\n        uint256 _landID,\r\n        uint256 indexed _number,\r\n        uint256 indexed _machineID,\r\n        uint256[] _amountWins\r\n    ); */\r\n\r\n    event GameResult(\r\n        address[] _players,\r\n        string indexed _tokenName,\r\n        uint256 _landID,\r\n        uint256 indexed _number,\r\n        uint256 indexed _machineID,\r\n        uint256[] _winAmounts\r\n    );\r\n\r\n    uint256[] winAmounts;\r\n    Bet[] public bets;\r\n\r\n    /* event Finished(uint number, uint nextRoundTimestamp);\r\n    event NewSingleBet(uint bet, address player, uint number, uint value);\r\n    event NewEvenOddBet(uint bet, address player, uint number, uint value);\r\n    event NewRedBlackBet(uint bet, address player, uint number, uint value);\r\n    event NewHighLowBet(uint bet, address player, uint number, uint value);\r\n    event NewColumnBet(uint bet, address player, uint column, uint value);\r\n    event NewDozenBet(uint bet, address player, uint dozen, uint value);\r\n    */\r\n\r\n    function getNextRoundTimestamp() external view returns(uint) {\r\n        return nextRoundTimestamp;\r\n    }\r\n\r\n    function createBet(\r\n        uint _betType,\r\n        address _player,\r\n        uint _number,\r\n        uint _value\r\n        // string calldata _tokenName\r\n    ) external whenNotPaused onlyCEO {\r\n        bet(\r\n            _betType,\r\n            _player,\r\n            _number,\r\n            _value\r\n            // _tokenName\r\n        );\r\n    }\r\n\r\n    function bet(\r\n        uint _betType,\r\n        address _player,\r\n        uint _number,\r\n        uint _value\r\n        // string memory _token\r\n    ) internal {\r\n\r\n        currentBets[_betType][_number] += _value;\r\n\r\n        require(\r\n            currentBets[_betType][_number] <= maxSquareBet,\r\n            'exceeding maximum bet limit'\r\n        );\r\n\r\n        if (_betType == uint(BetType.Single)) return betSingle(_number, _player, _value);\r\n        if (_betType == uint(BetType.EvenOdd)) return betEvenOdd(_number, _player, _value);\r\n        if (_betType == uint(BetType.RedBlack)) return betRedBlack(_number ,_player, _value);\r\n        if (_betType == uint(BetType.HighLow)) return betHighLow(_number, _player, _value);\r\n        if (_betType == uint(BetType.Column)) return betColumn(_number, _player, _value);\r\n        if (_betType == uint(BetType.Dozen)) return betDozen(_number, _player, _value);\r\n    }\r\n\r\n    function betSingle(uint _number, address _player, uint _value) internal {\r\n        require(_number <= 36, 'must be between 0 and 36');\r\n        bets.push(Bet({\r\n            betType: BetType.Single,\r\n            player: _player,\r\n            number: _number,\r\n            value: _value\r\n            // tokenName: _token\r\n        }));\r\n        // emit NewSingleBet(bets.length, _player, _number, _value);\r\n    }\r\n\r\n    function betEvenOdd(uint256 _number, address _player, uint _value) internal {\r\n        require(_number <= 1, 'Even(0) - Odd(1)');\r\n        bets.push(Bet({\r\n            betType: BetType.EvenOdd,\r\n            player: _player,\r\n            number: _number,\r\n            value: _value\r\n            // tokenName: _token\r\n        }));\r\n        // emit NewEvenOddBet(bets.length, _player, _number, _value);\r\n    }\r\n\r\n    function betRedBlack(uint256 _number, address _player, uint _value) internal {\r\n        require(_number <= 1, 'Red(0) - Black(1)');\r\n        bets.push(Bet({\r\n            betType: BetType.RedBlack,\r\n            player: _player,\r\n            number: _number,\r\n            value: _value\r\n            // tokenName: _token\r\n        }));\r\n        // emit NewRedBlackBet(bets.length, _player, _number, _value);\r\n    }\r\n\r\n    function betHighLow(uint256 _number, address _player, uint _value) internal {\r\n        require(_number <= 1, 'High(0) - Low(1)');\r\n        bets.push(Bet({\r\n            betType: BetType.HighLow,\r\n            player: _player,\r\n            number: _number,\r\n            value: _value\r\n            // tokenName: _token\r\n        }));\r\n        // emit NewHighLowBet(bets.length, _player, _number, _value);\r\n    }\r\n\r\n    function betColumn(uint _column, address _player, uint _value) internal {\r\n        require(_column <= 2, 'column must be in region between 0 and 2');\r\n        bets.push(Bet({\r\n            betType: BetType.Column,\r\n            player: _player,\r\n            number: _column,\r\n            value: _value\r\n            // tokenName: _token\r\n        }));\r\n        // emit NewColumnBet(bets.length, _player, _column, _value);\r\n    }\r\n\r\n    function betDozen(uint _dozen, address _player, uint _value) internal {\r\n        require(_dozen <= 2, 'dozen must be in region between 0 and 2');\r\n        bets.push(Bet({\r\n            betType: BetType.Dozen,\r\n            player: _player,\r\n            number: _dozen,\r\n            value: _value\r\n            // tokenName: _token\r\n        }));\r\n        // emit NewDozenBet(bets.length, _player, _dozen, _value);\r\n    }\r\n\r\n    function launch(\r\n        bytes32 _localhash\r\n        // uint256 _machineID,\r\n        // uint256 _landID,\r\n        // string calldata _tokenName\r\n    ) external whenNotPaused onlyCEO returns(uint256[] memory, uint256 number) {\r\n        return _launch(\r\n            _localhash\r\n            // _machineID,\r\n            // _landID,\r\n            // _tokenName\r\n        );\r\n    }\r\n\r\n    function _launch(\r\n        bytes32 _localhash\r\n        // uint256 _machineID,\r\n        // uint256 _landID,\r\n        // string memory _tokenName\r\n    ) private returns(uint256[] memory, uint256 number) {\r\n\r\n        require(now > nextRoundTimestamp, 'expired round');\r\n        require(bets.length > 0, 'must have bets');\r\n\r\n        winAmounts.length = 0;\r\n        nextRoundTimestamp = now;\r\n\r\n        uint diff = block.difficulty;\r\n        bytes32 hash = _localhash;\r\n        Bet memory lb = bets[bets.length-1];\r\n        number = uint(keccak256(abi.encodePacked(now, diff, hash, lb.betType, lb.player, lb.number))) % 37;\r\n\r\n        for (uint i = 0; i < bets.length; i++) {\r\n            bool won = false;\r\n            Bet memory b = bets[i];\r\n            if (b.betType == BetType.Single && b.number == number) {\r\n                won = true;\r\n            } else if (b.betType == BetType.EvenOdd) {\r\n                if (number > 0 && number % 2 == b.number) {\r\n                    won = true;\r\n                }\r\n            } else if (b.betType == BetType.RedBlack && b.number == 0) {\r\n                if ((number > 0 && number <= 10) || (number >= 19 && number <= 28)) {\r\n                    won = (number % 2 == 1);\r\n                } else {\r\n                    won = (number % 2 == 0);\r\n                }\r\n            } else if (b.betType == BetType.RedBlack && b.number == 1) {\r\n                if ((number > 0 && number <= 10) || (number >= 19 && number <= 28)) {\r\n                    won = (number % 2 == 0);\r\n                } else {\r\n                    won = (number % 2 == 1);\r\n                }\r\n            } else if (b.betType == BetType.HighLow) {\r\n                if (number >= 19 && b.number == 0) {\r\n                    won = true;\r\n                }\r\n                if (number > 0 && number <= 18 && b.number == 1) {\r\n                    won = true;\r\n                }\r\n            } else if (b.betType == BetType.Column) {\r\n                if (b.number == 0) won = (number % 3 == 1);\r\n                if (b.number == 1) won = (number % 3 == 2);\r\n                if (b.number == 2) won = (number % 3 == 0);\r\n            } else if (b.betType == BetType.Dozen) {\r\n                if (b.number == 0) won = (number <= 12);\r\n                if (b.number == 1) won = (number > 12 && number <= 24);\r\n                if (b.number == 2) won = (number > 24);\r\n            }\r\n\r\n            if (won) {\r\n                uint256 betWin = b.value.mul(getPayoutForType(b.betType));\r\n                winAmounts.push(betWin);\r\n            } else {\r\n                winAmounts.push(0);\r\n            }\r\n\r\n            currentBets[uint(b.betType)][b.number] = 0;\r\n        }\r\n\r\n        // reset bets\r\n        bets.length = 0;\r\n        // emit SpinResult(_tokenName, _landID, number, _machineID, winAmounts);\r\n\r\n        // return wins\r\n        return(winAmounts, number);\r\n    }\r\n\r\n    function play(\r\n        address[] memory _players,\r\n        uint256 _landID,\r\n        uint256 _machineID,\r\n        uint256[] memory _betIDs,\r\n        uint256[] memory _betValues,\r\n        uint256[] memory _betAmount,\r\n        bytes32 _localhash,\r\n        string memory _tokenName\r\n    ) public whenNotPaused onlyWorker {\r\n\r\n        require(\r\n            _betIDs.length == _betValues.length,\r\n            'inconsistent amount of bets'\r\n        );\r\n        require(\r\n            _betIDs.length == _betAmount.length,\r\n            'inconsistent amount of bets'\r\n        );\r\n        require(\r\n            _betIDs.length <= maximumNumberBets,\r\n            'maximum amount of bets reached'\r\n        );\r\n\r\n        treasury.consumeHash(_localhash);\r\n\r\n        for (uint256 i = 0; i < _betIDs.length; i++) {\r\n\r\n            require(\r\n                treasury.checkApproval(_players[i], _tokenName) >= _betAmount[i],\r\n                'approve treasury as spender'\r\n            );\r\n\r\n            require(\r\n                treasury.getMaximumBet(_tokenName) >= _betAmount[i],\r\n                'bet amount is more than maximum'\r\n            );\r\n\r\n            require(\r\n                treasury.tokenInboundTransfer(_tokenName, _players[i], _betAmount[i]),\r\n                'inbound transfer failed'\r\n            );\r\n\r\n            bet(\r\n                _betIDs[i],\r\n                _players[i],\r\n                _betValues[i],\r\n                _betAmount[i]\r\n                // _tokenName\r\n            );\r\n        }\r\n\r\n        require(\r\n            getNecessaryBalance() <= treasury.checkAllocatedTokens(_tokenName),\r\n            \"not enough tokens for payout\"\r\n        );\r\n\r\n        uint256 number;\r\n        (winAmounts, number) = _launch(\r\n            _localhash\r\n            // _machineID,\r\n            // _landID,\r\n            // _tokenName\r\n        );\r\n\r\n        for (uint256 i = 0; i < winAmounts.length; i++) {\r\n            if (winAmounts[i] > 0) {\r\n                treasury.tokenOutboundTransfer(_tokenName, _players[i], winAmounts[i]);\r\n            }\r\n        }\r\n\r\n        emit GameResult(\r\n            _players,\r\n            _tokenName,\r\n            _landID,\r\n            number,\r\n            _machineID,\r\n            winAmounts\r\n        );\r\n    }\r\n\r\n\r\n    function getPayoutForType(BetType _betType) public pure returns(uint256) {\r\n        if (_betType == BetType.Single) return 36;\r\n        if (_betType == BetType.EvenOdd) return 2;\r\n        if (_betType == BetType.RedBlack) return 2;\r\n        if (_betType == BetType.HighLow) return 2;\r\n        if (_betType == BetType.Column) return 3;\r\n        if (_betType == BetType.Dozen) return 3;\r\n    }\r\n\r\n    function getNecessaryBalance() public view returns (uint256 _necessaryBalance) {\r\n\r\n        uint256 _necessaryForBetType;\r\n        uint256 _i;\r\n        uint256[6] memory betTypesMax;\r\n\r\n        // determine highest for each betType\r\n        for (_i = 0; _i < bets.length; _i++) {\r\n\r\n            Bet memory b = bets[_i];\r\n\r\n            _necessaryForBetType = currentBets[uint(b.betType)][b.number].mul(\r\n                getPayoutForType(b.betType)\r\n            );\r\n\r\n            if (_necessaryForBetType > betTypesMax[uint(b.betType)]) {\r\n                betTypesMax[uint(b.betType)] = _necessaryForBetType;\r\n            }\r\n        }\r\n\r\n        // calculate total for all betTypes\r\n        for (_i = 0; _i < betTypesMax.length; _i++) {\r\n            _necessaryBalance = _necessaryBalance.add(\r\n                betTypesMax[_i]\r\n            );\r\n        }\r\n    }\r\n\r\n    function getBetsCountAndValue() external view returns(uint, uint) {\r\n        uint value = 0;\r\n        for (uint i = 0; i < bets.length; i++) {\r\n            value += bets[i].value;\r\n        }\r\n        return (bets.length, value);\r\n    }\r\n\r\n    function getBetsCount() external view returns (uint256) {\r\n        return bets.length;\r\n    }\r\n\r\n    function changeMaxSquareBet(uint256 _newMaxSquareBet) external onlyCEO {\r\n        maxSquareBet = _newMaxSquareBet;\r\n    }\r\n\r\n    function changeTreasury(address _newTreasuryAddress) external onlyCEO {\r\n        treasury = TreasuryInstance(_newTreasuryAddress);\r\n    }\r\n\r\n    function _changeTreasury(address _newTreasuryAddress) external onlyTreasury {\r\n        treasury = TreasuryInstance(_newTreasuryAddress);\r\n    }\r\n}\r\n",
  "sourcePath": "/Users/vitallymarinchenko/Development/contracts/contracts/treasury-example/TreasuryRoulette.sol",
  "compiler": {
    "name": "solc",
    "version": "0.5.16+commit.9c3226ce.Emscripten.clang"
  },
  "schemaVersion": "3.0.23",
  "updatedAt": "2020-05-22T10:07:29.238Z",
  "networkType": "ethereum",
  "devdoc": {
    "methods": {}
  },
  "userdoc": {
    "methods": {}
  }
}